{"contracts/solidity-by-example/Ballot.sol":{"Ballot":{"abi":[{"inputs":[{"internalType":"bytes32[]","name":"proposalNames","type":"bytes32[]"}],"stateMutability":"nonpayable","type":"constructor"},{"inputs":[{"internalType":"address","name":"_voter","type":"address"}],"name":"addVoter","outputs":[],"stateMutability":"nonpayable","type":"function"},{"inputs":[{"internalType":"address","name":"_to","type":"address"}],"name":"delegate","outputs":[],"stateMutability":"nonpayable","type":"function"},{"inputs":[{"internalType":"address","name":"voter","type":"address"}],"name":"giveRightToVote","outputs":[],"stateMutability":"nonpayable","type":"function"},{"inputs":[{"internalType":"uint256","name":"_proposal","type":"uint256"}],"name":"vote","outputs":[],"stateMutability":"nonpayable","type":"function"},{"inputs":[{"internalType":"address","name":"","type":"address"}],"name":"voters","outputs":[{"internalType":"address","name":"self","type":"address"},{"internalType":"uint256","name":"weight","type":"uint256"},{"internalType":"bool","name":"voted","type":"bool"},{"internalType":"address","name":"delegate","type":"address"},{"internalType":"uint256","name":"vote","type":"uint256"}],"stateMutability":"view","type":"function"},{"inputs":[],"name":"winnerName","outputs":[{"internalType":"bytes32","name":"winnerName_","type":"bytes32"}],"stateMutability":"view","type":"function"},{"inputs":[],"name":"winningProposal","outputs":[{"internalType":"uint256","name":"winningProposalIndex_","type":"uint256"}],"stateMutability":"view","type":"function"}],"evm":{"bytecode":{"linkReferences":{},"object":"60806040523480156200001157600080fd5b506040516200155c3803806200155c8339818101604052810190620000379190620002db565b33600260006101000a81548173ffffffffffffffffffffffffffffffffffffffff021916908373ffffffffffffffffffffffffffffffffffffffff16021790555060005b81518110156200010f5760016040518060400160405280848481518110620000a857620000a76200032c565b5b6020026020010151815260200160008152509080600181540180825580915050600190039060005260206000209060020201600090919091909150600082015181600001556020820151816001015550508080620001069062000394565b9150506200007b565b5050620003e1565b6000604051905090565b600080fd5b600080fd5b600080fd5b6000601f19601f8301169050919050565b7f4e487b7100000000000000000000000000000000000000000000000000000000600052604160045260246000fd5b6200017b8262000130565b810181811067ffffffffffffffff821117156200019d576200019c62000141565b5b80604052505050565b6000620001b262000117565b9050620001c0828262000170565b919050565b600067ffffffffffffffff821115620001e357620001e262000141565b5b602082029050602081019050919050565b600080fd5b6000819050919050565b6200020e81620001f9565b81146200021a57600080fd5b50565b6000815190506200022e8162000203565b92915050565b60006200024b6200024584620001c5565b620001a6565b90508083825260208201905060208402830185811115620002715762000270620001f4565b5b835b818110156200029e57806200028988826200021d565b84526020840193505060208101905062000273565b5050509392505050565b600082601f830112620002c057620002bf6200012b565b5b8151620002d284826020860162000234565b91505092915050565b600060208284031215620002f457620002f362000121565b5b600082015167ffffffffffffffff81111562000315576200031462000126565b5b6200032384828501620002a8565b91505092915050565b7f4e487b7100000000000000000000000000000000000000000000000000000000600052603260045260246000fd5b7f4e487b7100000000000000000000000000000000000000000000000000000000600052601160045260246000fd5b6000819050919050565b6000620003a1826200038a565b91507fffffffffffffffffffffffffffffffffffffffffffffffffffffffffffffffff8203620003d657620003d56200035b565b5b600182019050919050565b61116b80620003f16000396000f3fe608060405234801561001057600080fd5b506004361061007d5760003560e01c80639e7b8d611161005b5780639e7b8d61146100d8578063a3ec138d146100f4578063e2ba53f014610128578063f4ab9adf146101465761007d565b80630121b93f146100825780635c19a95c1461009e578063609ff1bd146100ba575b600080fd5b61009c60048036038101906100979190610a99565b610162565b005b6100b860048036038101906100b39190610b24565b6102b1565b005b6100c2610504565b6040516100cf9190610b60565b60405180910390f35b6100f260048036038101906100ed9190610b24565b61058c565b005b61010e60048036038101906101099190610b24565b610779565b60405161011f959493929190610ba5565b60405180910390f35b6101306107fc565b60405161013d9190610c11565b60405180910390f35b610160600480360381019061015b9190610b24565b610830565b005b60008060003373ffffffffffffffffffffffffffffffffffffffff1673ffffffffffffffffffffffffffffffffffffffff168152602001908152602001600020905060008160010154036101eb576040517f08c379a00000000000000000000000000000000000000000000000000000000081526004016101e290610caf565b60405180910390fd5b8060020160009054906101000a900460ff161561023d576040517f08c379a000000000000000000000000000000000000000000000000000000000815260040161023490610d1b565b60405180910390fd5b60018160020160006101000a81548160ff02191690831515021790555081816003018190555080600101546001838154811061027c5761027b610d3b565b5b9060005260206000209060020201600101600082825461029c9190610d99565b92505081905550600081600101819055505050565b60008060003373ffffffffffffffffffffffffffffffffffffffff1673ffffffffffffffffffffffffffffffffffffffff1681526020019081526020016000209050600081600101540361033a576040517f08c379a000000000000000000000000000000000000000000000000000000000815260040161033190610e19565b60405180910390fd5b8060020160009054906101000a900460ff161561038c576040517f08c379a000000000000000000000000000000000000000000000000000000000815260040161038390610d1b565b60405180910390fd5b60008060008473ffffffffffffffffffffffffffffffffffffffff1673ffffffffffffffffffffffffffffffffffffffff16815260200190815260200160002090506001816001015411610415576040517f08c379a000000000000000000000000000000000000000000000000000000000815260040161040c90610eab565b60405180910390fd5b60018260020160006101000a81548160ff021916908315150217905550828260020160016101000a81548173ffffffffffffffffffffffffffffffffffffffff021916908373ffffffffffffffffffffffffffffffffffffffff1602179055508060020160009054906101000a900460ff16156104d557816001015460018260030154815481106104a9576104a8610d3b565b5b906000526020600020906002020160010160008282546104c99190610d99565b925050819055506104ff565b81600101548160010160008282546104ed9190610d99565b92505081905550600082600101819055505b505050565b6000806000905060005b6001805490508110156105875781600182815481106105305761052f610d3b565b5b9060005260206000209060020201600101541115610574576001818154811061055c5761055b610d3b565b5b90600052602060002090600202016001015491508092505b808061057f90610ecb565b91505061050e565b505090565b600260009054906101000a900473ffffffffffffffffffffffffffffffffffffffff1673ffffffffffffffffffffffffffffffffffffffff163373ffffffffffffffffffffffffffffffffffffffff161461061c576040517f08c379a000000000000000000000000000000000000000000000000000000000815260040161061390610f85565b60405180910390fd5b6000808273ffffffffffffffffffffffffffffffffffffffff1673ffffffffffffffffffffffffffffffffffffffff16815260200190815260200160002060020160009054906101000a900460ff16156106ab576040517f08c379a00000000000000000000000000000000000000000000000000000000081526004016106a290611017565b60405180910390fd5b60008060008373ffffffffffffffffffffffffffffffffffffffff1673ffffffffffffffffffffffffffffffffffffffff168152602001908152602001600020600101541461072f576040517f08c379a0000000000000000000000000000000000000000000000000000000008152600401610726906110a9565b60405180910390fd5b60016000808373ffffffffffffffffffffffffffffffffffffffff1673ffffffffffffffffffffffffffffffffffffffff1681526020019081526020016000206001018190555050565b60006020528060005260406000206000915090508060000160009054906101000a900473ffffffffffffffffffffffffffffffffffffffff16908060010154908060020160009054906101000a900460ff16908060020160019054906101000a900473ffffffffffffffffffffffffffffffffffffffff16908060030154905085565b60006001610808610504565b8154811061081957610818610d3b565b5b906000526020600020906002020160000154905090565b8073ffffffffffffffffffffffffffffffffffffffff166000808373ffffffffffffffffffffffffffffffffffffffff1673ffffffffffffffffffffffffffffffffffffffff16815260200190815260200160002060000160009054906101000a900473ffffffffffffffffffffffffffffffffffffffff1673ffffffffffffffffffffffffffffffffffffffff16036108ff576040517f08c379a00000000000000000000000000000000000000000000000000000000081526004016108f690611115565b60405180910390fd5b6040518060a001604052808273ffffffffffffffffffffffffffffffffffffffff168152602001600081526020016000151581526020013073ffffffffffffffffffffffffffffffffffffffff1681526020016127108152506000808373ffffffffffffffffffffffffffffffffffffffff1673ffffffffffffffffffffffffffffffffffffffff16815260200190815260200160002060008201518160000160006101000a81548173ffffffffffffffffffffffffffffffffffffffff021916908373ffffffffffffffffffffffffffffffffffffffff1602179055506020820151816001015560408201518160020160006101000a81548160ff02191690831515021790555060608201518160020160016101000a81548173ffffffffffffffffffffffffffffffffffffffff021916908373ffffffffffffffffffffffffffffffffffffffff1602179055506080820151816003015590505050565b600080fd5b6000819050919050565b610a7681610a63565b8114610a8157600080fd5b50565b600081359050610a9381610a6d565b92915050565b600060208284031215610aaf57610aae610a5e565b5b6000610abd84828501610a84565b91505092915050565b600073ffffffffffffffffffffffffffffffffffffffff82169050919050565b6000610af182610ac6565b9050919050565b610b0181610ae6565b8114610b0c57600080fd5b50565b600081359050610b1e81610af8565b92915050565b600060208284031215610b3a57610b39610a5e565b5b6000610b4884828501610b0f565b91505092915050565b610b5a81610a63565b82525050565b6000602082019050610b756000830184610b51565b92915050565b610b8481610ae6565b82525050565b60008115159050919050565b610b9f81610b8a565b82525050565b600060a082019050610bba6000830188610b7b565b610bc76020830187610b51565b610bd46040830186610b96565b610be16060830185610b7b565b610bee6080830184610b51565b9695505050505050565b6000819050919050565b610c0b81610bf8565b82525050565b6000602082019050610c266000830184610c02565b92915050565b600082825260208201905092915050565b7f566f74657220686173204e6f20726967687420746f20566f7465204f5220416c60008201527f726561647920566f746564210000000000000000000000000000000000000000602082015250565b6000610c99602c83610c2c565b9150610ca482610c3d565b604082019050919050565b60006020820190508181036000830152610cc881610c8c565b9050919050565b7f566f7465722068617320616c726561647920766f746564000000000000000000600082015250565b6000610d05601783610c2c565b9150610d1082610ccf565b602082019050919050565b60006020820190508181036000830152610d3481610cf8565b9050919050565b7f4e487b7100000000000000000000000000000000000000000000000000000000600052603260045260246000fd5b7f4e487b7100000000000000000000000000000000000000000000000000000000600052601160045260246000fd5b6000610da482610a63565b9150610daf83610a63565b9250828201905080821115610dc757610dc6610d6a565b5b92915050565b7f566f74657220686173206e6f20726967687420746f20566f7465000000000000600082015250565b6000610e03601a83610c2c565b9150610e0e82610dcd565b602082019050919050565b60006020820190508181036000830152610e3281610df6565b9050919050565b7f43616e6e6f742064656c656761746520746f20616e6f7468657220766f74657260008201527f284163636f756e7429207468617420686173206e6f2077656967687400000000602082015250565b6000610e95603c83610c2c565b9150610ea082610e39565b604082019050919050565b60006020820190508181036000830152610ec481610e88565b9050919050565b6000610ed682610a63565b91507fffffffffffffffffffffffffffffffffffffffffffffffffffffffffffffffff8203610f0857610f07610d6a565b5b600182019050919050565b7f4f6e6c79204368616972706572736f6e2063616e2070726f7669646520766f7460008201527f696e672072696768747300000000000000000000000000000000000000000000602082015250565b6000610f6f602a83610c2c565b9150610f7a82610f13565b604082019050919050565b60006020820190508181036000830152610f9e81610f62565b9050919050565b7f52696768747320616c7265616479206578697374733b205468697320566f746560008201527f722068617320616c726561647920566f7465642e000000000000000000000000602082015250565b6000611001603483610c2c565b915061100c82610fa5565b604082019050919050565b6000602082019050818103600083015261103081610ff4565b9050919050565b7f5468697320766f74657220616c72656164792068617320726967687420746f2060008201527f766f746500000000000000000000000000000000000000000000000000000000602082015250565b6000611093602483610c2c565b915061109e82611037565b604082019050919050565b600060208201905081810360008301526110c281611086565b9050919050565b7f5468697320566f7465722068617320616c72656164792065786974732e000000600082015250565b60006110ff601d83610c2c565b915061110a826110c9565b602082019050919050565b6000602082019050818103600083015261112e816110f2565b905091905056fea264697066735822122066bf2d5420a682e03e1a1da39129af57ea521a9daf40939bade46620853d505b64736f6c63430008110033","opcodes":"PUSH1 0x80 PUSH1 0x40 MSTORE CALLVALUE DUP1 ISZERO PUSH3 0x11 JUMPI PUSH1 0x0 DUP1 REVERT JUMPDEST POP PUSH1 0x40 MLOAD PUSH3 0x155C CODESIZE SUB DUP1 PUSH3 0x155C DUP4 CODECOPY DUP2 DUP2 ADD PUSH1 0x40 MSTORE DUP2 ADD SWAP1 PUSH3 0x37 SWAP2 SWAP1 PUSH3 0x2DB JUMP JUMPDEST CALLER PUSH1 0x2 PUSH1 0x0 PUSH2 0x100 EXP DUP2 SLOAD DUP2 PUSH20 0xFFFFFFFFFFFFFFFFFFFFFFFFFFFFFFFFFFFFFFFF MUL NOT AND SWAP1 DUP4 PUSH20 0xFFFFFFFFFFFFFFFFFFFFFFFFFFFFFFFFFFFFFFFF AND MUL OR SWAP1 SSTORE POP PUSH1 0x0 JUMPDEST DUP2 MLOAD DUP2 LT ISZERO PUSH3 0x10F JUMPI PUSH1 0x1 PUSH1 0x40 MLOAD DUP1 PUSH1 0x40 ADD PUSH1 0x40 MSTORE DUP1 DUP5 DUP5 DUP2 MLOAD DUP2 LT PUSH3 0xA8 JUMPI PUSH3 0xA7 PUSH3 0x32C JUMP JUMPDEST JUMPDEST PUSH1 0x20 MUL PUSH1 0x20 ADD ADD MLOAD DUP2 MSTORE PUSH1 0x20 ADD PUSH1 0x0 DUP2 MSTORE POP SWAP1 DUP1 PUSH1 0x1 DUP2 SLOAD ADD DUP1 DUP3 SSTORE DUP1 SWAP2 POP POP PUSH1 0x1 SWAP1 SUB SWAP1 PUSH1 0x0 MSTORE PUSH1 0x20 PUSH1 0x0 KECCAK256 SWAP1 PUSH1 0x2 MUL ADD PUSH1 0x0 SWAP1 SWAP2 SWAP1 SWAP2 SWAP1 SWAP2 POP PUSH1 0x0 DUP3 ADD MLOAD DUP2 PUSH1 0x0 ADD SSTORE PUSH1 0x20 DUP3 ADD MLOAD DUP2 PUSH1 0x1 ADD SSTORE POP POP DUP1 DUP1 PUSH3 0x106 SWAP1 PUSH3 0x394 JUMP JUMPDEST SWAP2 POP POP PUSH3 0x7B JUMP JUMPDEST POP POP PUSH3 0x3E1 JUMP JUMPDEST PUSH1 0x0 PUSH1 0x40 MLOAD SWAP1 POP SWAP1 JUMP JUMPDEST PUSH1 0x0 DUP1 REVERT JUMPDEST PUSH1 0x0 DUP1 REVERT JUMPDEST PUSH1 0x0 DUP1 REVERT JUMPDEST PUSH1 0x0 PUSH1 0x1F NOT PUSH1 0x1F DUP4 ADD AND SWAP1 POP SWAP2 SWAP1 POP JUMP JUMPDEST PUSH32 0x4E487B7100000000000000000000000000000000000000000000000000000000 PUSH1 0x0 MSTORE PUSH1 0x41 PUSH1 0x4 MSTORE PUSH1 0x24 PUSH1 0x0 REVERT JUMPDEST PUSH3 0x17B DUP3 PUSH3 0x130 JUMP JUMPDEST DUP2 ADD DUP2 DUP2 LT PUSH8 0xFFFFFFFFFFFFFFFF DUP3 GT OR ISZERO PUSH3 0x19D JUMPI PUSH3 0x19C PUSH3 0x141 JUMP JUMPDEST JUMPDEST DUP1 PUSH1 0x40 MSTORE POP POP POP JUMP JUMPDEST PUSH1 0x0 PUSH3 0x1B2 PUSH3 0x117 JUMP JUMPDEST SWAP1 POP PUSH3 0x1C0 DUP3 DUP3 PUSH3 0x170 JUMP JUMPDEST SWAP2 SWAP1 POP JUMP JUMPDEST PUSH1 0x0 PUSH8 0xFFFFFFFFFFFFFFFF DUP3 GT ISZERO PUSH3 0x1E3 JUMPI PUSH3 0x1E2 PUSH3 0x141 JUMP JUMPDEST JUMPDEST PUSH1 0x20 DUP3 MUL SWAP1 POP PUSH1 0x20 DUP2 ADD SWAP1 POP SWAP2 SWAP1 POP JUMP JUMPDEST PUSH1 0x0 DUP1 REVERT JUMPDEST PUSH1 0x0 DUP2 SWAP1 POP SWAP2 SWAP1 POP JUMP JUMPDEST PUSH3 0x20E DUP2 PUSH3 0x1F9 JUMP JUMPDEST DUP2 EQ PUSH3 0x21A JUMPI PUSH1 0x0 DUP1 REVERT JUMPDEST POP JUMP JUMPDEST PUSH1 0x0 DUP2 MLOAD SWAP1 POP PUSH3 0x22E DUP2 PUSH3 0x203 JUMP JUMPDEST SWAP3 SWAP2 POP POP JUMP JUMPDEST PUSH1 0x0 PUSH3 0x24B PUSH3 0x245 DUP5 PUSH3 0x1C5 JUMP JUMPDEST PUSH3 0x1A6 JUMP JUMPDEST SWAP1 POP DUP1 DUP4 DUP3 MSTORE PUSH1 0x20 DUP3 ADD SWAP1 POP PUSH1 0x20 DUP5 MUL DUP4 ADD DUP6 DUP2 GT ISZERO PUSH3 0x271 JUMPI PUSH3 0x270 PUSH3 0x1F4 JUMP JUMPDEST JUMPDEST DUP4 JUMPDEST DUP2 DUP2 LT ISZERO PUSH3 0x29E JUMPI DUP1 PUSH3 0x289 DUP9 DUP3 PUSH3 0x21D JUMP JUMPDEST DUP5 MSTORE PUSH1 0x20 DUP5 ADD SWAP4 POP POP PUSH1 0x20 DUP2 ADD SWAP1 POP PUSH3 0x273 JUMP JUMPDEST POP POP POP SWAP4 SWAP3 POP POP POP JUMP JUMPDEST PUSH1 0x0 DUP3 PUSH1 0x1F DUP4 ADD SLT PUSH3 0x2C0 JUMPI PUSH3 0x2BF PUSH3 0x12B JUMP JUMPDEST JUMPDEST DUP2 MLOAD PUSH3 0x2D2 DUP5 DUP3 PUSH1 0x20 DUP7 ADD PUSH3 0x234 JUMP JUMPDEST SWAP2 POP POP SWAP3 SWAP2 POP POP JUMP JUMPDEST PUSH1 0x0 PUSH1 0x20 DUP3 DUP5 SUB SLT ISZERO PUSH3 0x2F4 JUMPI PUSH3 0x2F3 PUSH3 0x121 JUMP JUMPDEST JUMPDEST PUSH1 0x0 DUP3 ADD MLOAD PUSH8 0xFFFFFFFFFFFFFFFF DUP2 GT ISZERO PUSH3 0x315 JUMPI PUSH3 0x314 PUSH3 0x126 JUMP JUMPDEST JUMPDEST PUSH3 0x323 DUP5 DUP3 DUP6 ADD PUSH3 0x2A8 JUMP JUMPDEST SWAP2 POP POP SWAP3 SWAP2 POP POP JUMP JUMPDEST PUSH32 0x4E487B7100000000000000000000000000000000000000000000000000000000 PUSH1 0x0 MSTORE PUSH1 0x32 PUSH1 0x4 MSTORE PUSH1 0x24 PUSH1 0x0 REVERT JUMPDEST PUSH32 0x4E487B7100000000000000000000000000000000000000000000000000000000 PUSH1 0x0 MSTORE PUSH1 0x11 PUSH1 0x4 MSTORE PUSH1 0x24 PUSH1 0x0 REVERT JUMPDEST PUSH1 0x0 DUP2 SWAP1 POP SWAP2 SWAP1 POP JUMP JUMPDEST PUSH1 0x0 PUSH3 0x3A1 DUP3 PUSH3 0x38A JUMP JUMPDEST SWAP2 POP PUSH32 0xFFFFFFFFFFFFFFFFFFFFFFFFFFFFFFFFFFFFFFFFFFFFFFFFFFFFFFFFFFFFFFFF DUP3 SUB PUSH3 0x3D6 JUMPI PUSH3 0x3D5 PUSH3 0x35B JUMP JUMPDEST JUMPDEST PUSH1 0x1 DUP3 ADD SWAP1 POP SWAP2 SWAP1 POP JUMP JUMPDEST PUSH2 0x116B DUP1 PUSH3 0x3F1 PUSH1 0x0 CODECOPY PUSH1 0x0 RETURN INVALID PUSH1 0x80 PUSH1 0x40 MSTORE CALLVALUE DUP1 ISZERO PUSH2 0x10 JUMPI PUSH1 0x0 DUP1 REVERT JUMPDEST POP PUSH1 0x4 CALLDATASIZE LT PUSH2 0x7D JUMPI PUSH1 0x0 CALLDATALOAD PUSH1 0xE0 SHR DUP1 PUSH4 0x9E7B8D61 GT PUSH2 0x5B JUMPI DUP1 PUSH4 0x9E7B8D61 EQ PUSH2 0xD8 JUMPI DUP1 PUSH4 0xA3EC138D EQ PUSH2 0xF4 JUMPI DUP1 PUSH4 0xE2BA53F0 EQ PUSH2 0x128 JUMPI DUP1 PUSH4 0xF4AB9ADF EQ PUSH2 0x146 JUMPI PUSH2 0x7D JUMP JUMPDEST DUP1 PUSH4 0x121B93F EQ PUSH2 0x82 JUMPI DUP1 PUSH4 0x5C19A95C EQ PUSH2 0x9E JUMPI DUP1 PUSH4 0x609FF1BD EQ PUSH2 0xBA JUMPI JUMPDEST PUSH1 0x0 DUP1 REVERT JUMPDEST PUSH2 0x9C PUSH1 0x4 DUP1 CALLDATASIZE SUB DUP2 ADD SWAP1 PUSH2 0x97 SWAP2 SWAP1 PUSH2 0xA99 JUMP JUMPDEST PUSH2 0x162 JUMP JUMPDEST STOP JUMPDEST PUSH2 0xB8 PUSH1 0x4 DUP1 CALLDATASIZE SUB DUP2 ADD SWAP1 PUSH2 0xB3 SWAP2 SWAP1 PUSH2 0xB24 JUMP JUMPDEST PUSH2 0x2B1 JUMP JUMPDEST STOP JUMPDEST PUSH2 0xC2 PUSH2 0x504 JUMP JUMPDEST PUSH1 0x40 MLOAD PUSH2 0xCF SWAP2 SWAP1 PUSH2 0xB60 JUMP JUMPDEST PUSH1 0x40 MLOAD DUP1 SWAP2 SUB SWAP1 RETURN JUMPDEST PUSH2 0xF2 PUSH1 0x4 DUP1 CALLDATASIZE SUB DUP2 ADD SWAP1 PUSH2 0xED SWAP2 SWAP1 PUSH2 0xB24 JUMP JUMPDEST PUSH2 0x58C JUMP JUMPDEST STOP JUMPDEST PUSH2 0x10E PUSH1 0x4 DUP1 CALLDATASIZE SUB DUP2 ADD SWAP1 PUSH2 0x109 SWAP2 SWAP1 PUSH2 0xB24 JUMP JUMPDEST PUSH2 0x779 JUMP JUMPDEST PUSH1 0x40 MLOAD PUSH2 0x11F SWAP6 SWAP5 SWAP4 SWAP3 SWAP2 SWAP1 PUSH2 0xBA5 JUMP JUMPDEST PUSH1 0x40 MLOAD DUP1 SWAP2 SUB SWAP1 RETURN JUMPDEST PUSH2 0x130 PUSH2 0x7FC JUMP JUMPDEST PUSH1 0x40 MLOAD PUSH2 0x13D SWAP2 SWAP1 PUSH2 0xC11 JUMP JUMPDEST PUSH1 0x40 MLOAD DUP1 SWAP2 SUB SWAP1 RETURN JUMPDEST PUSH2 0x160 PUSH1 0x4 DUP1 CALLDATASIZE SUB DUP2 ADD SWAP1 PUSH2 0x15B SWAP2 SWAP1 PUSH2 0xB24 JUMP JUMPDEST PUSH2 0x830 JUMP JUMPDEST STOP JUMPDEST PUSH1 0x0 DUP1 PUSH1 0x0 CALLER PUSH20 0xFFFFFFFFFFFFFFFFFFFFFFFFFFFFFFFFFFFFFFFF AND PUSH20 0xFFFFFFFFFFFFFFFFFFFFFFFFFFFFFFFFFFFFFFFF AND DUP2 MSTORE PUSH1 0x20 ADD SWAP1 DUP2 MSTORE PUSH1 0x20 ADD PUSH1 0x0 KECCAK256 SWAP1 POP PUSH1 0x0 DUP2 PUSH1 0x1 ADD SLOAD SUB PUSH2 0x1EB JUMPI PUSH1 0x40 MLOAD PUSH32 0x8C379A000000000000000000000000000000000000000000000000000000000 DUP2 MSTORE PUSH1 0x4 ADD PUSH2 0x1E2 SWAP1 PUSH2 0xCAF JUMP JUMPDEST PUSH1 0x40 MLOAD DUP1 SWAP2 SUB SWAP1 REVERT JUMPDEST DUP1 PUSH1 0x2 ADD PUSH1 0x0 SWAP1 SLOAD SWAP1 PUSH2 0x100 EXP SWAP1 DIV PUSH1 0xFF AND ISZERO PUSH2 0x23D JUMPI PUSH1 0x40 MLOAD PUSH32 0x8C379A000000000000000000000000000000000000000000000000000000000 DUP2 MSTORE PUSH1 0x4 ADD PUSH2 0x234 SWAP1 PUSH2 0xD1B JUMP JUMPDEST PUSH1 0x40 MLOAD DUP1 SWAP2 SUB SWAP1 REVERT JUMPDEST PUSH1 0x1 DUP2 PUSH1 0x2 ADD PUSH1 0x0 PUSH2 0x100 EXP DUP2 SLOAD DUP2 PUSH1 0xFF MUL NOT AND SWAP1 DUP4 ISZERO ISZERO MUL OR SWAP1 SSTORE POP DUP2 DUP2 PUSH1 0x3 ADD DUP2 SWAP1 SSTORE POP DUP1 PUSH1 0x1 ADD SLOAD PUSH1 0x1 DUP4 DUP2 SLOAD DUP2 LT PUSH2 0x27C JUMPI PUSH2 0x27B PUSH2 0xD3B JUMP JUMPDEST JUMPDEST SWAP1 PUSH1 0x0 MSTORE PUSH1 0x20 PUSH1 0x0 KECCAK256 SWAP1 PUSH1 0x2 MUL ADD PUSH1 0x1 ADD PUSH1 0x0 DUP3 DUP3 SLOAD PUSH2 0x29C SWAP2 SWAP1 PUSH2 0xD99 JUMP JUMPDEST SWAP3 POP POP DUP2 SWAP1 SSTORE POP PUSH1 0x0 DUP2 PUSH1 0x1 ADD DUP2 SWAP1 SSTORE POP POP POP JUMP JUMPDEST PUSH1 0x0 DUP1 PUSH1 0x0 CALLER PUSH20 0xFFFFFFFFFFFFFFFFFFFFFFFFFFFFFFFFFFFFFFFF AND PUSH20 0xFFFFFFFFFFFFFFFFFFFFFFFFFFFFFFFFFFFFFFFF AND DUP2 MSTORE PUSH1 0x20 ADD SWAP1 DUP2 MSTORE PUSH1 0x20 ADD PUSH1 0x0 KECCAK256 SWAP1 POP PUSH1 0x0 DUP2 PUSH1 0x1 ADD SLOAD SUB PUSH2 0x33A JUMPI PUSH1 0x40 MLOAD PUSH32 0x8C379A000000000000000000000000000000000000000000000000000000000 DUP2 MSTORE PUSH1 0x4 ADD PUSH2 0x331 SWAP1 PUSH2 0xE19 JUMP JUMPDEST PUSH1 0x40 MLOAD DUP1 SWAP2 SUB SWAP1 REVERT JUMPDEST DUP1 PUSH1 0x2 ADD PUSH1 0x0 SWAP1 SLOAD SWAP1 PUSH2 0x100 EXP SWAP1 DIV PUSH1 0xFF AND ISZERO PUSH2 0x38C JUMPI PUSH1 0x40 MLOAD PUSH32 0x8C379A000000000000000000000000000000000000000000000000000000000 DUP2 MSTORE PUSH1 0x4 ADD PUSH2 0x383 SWAP1 PUSH2 0xD1B JUMP JUMPDEST PUSH1 0x40 MLOAD DUP1 SWAP2 SUB SWAP1 REVERT JUMPDEST PUSH1 0x0 DUP1 PUSH1 0x0 DUP5 PUSH20 0xFFFFFFFFFFFFFFFFFFFFFFFFFFFFFFFFFFFFFFFF AND PUSH20 0xFFFFFFFFFFFFFFFFFFFFFFFFFFFFFFFFFFFFFFFF AND DUP2 MSTORE PUSH1 0x20 ADD SWAP1 DUP2 MSTORE PUSH1 0x20 ADD PUSH1 0x0 KECCAK256 SWAP1 POP PUSH1 0x1 DUP2 PUSH1 0x1 ADD SLOAD GT PUSH2 0x415 JUMPI PUSH1 0x40 MLOAD PUSH32 0x8C379A000000000000000000000000000000000000000000000000000000000 DUP2 MSTORE PUSH1 0x4 ADD PUSH2 0x40C SWAP1 PUSH2 0xEAB JUMP JUMPDEST PUSH1 0x40 MLOAD DUP1 SWAP2 SUB SWAP1 REVERT JUMPDEST PUSH1 0x1 DUP3 PUSH1 0x2 ADD PUSH1 0x0 PUSH2 0x100 EXP DUP2 SLOAD DUP2 PUSH1 0xFF MUL NOT AND SWAP1 DUP4 ISZERO ISZERO MUL OR SWAP1 SSTORE POP DUP3 DUP3 PUSH1 0x2 ADD PUSH1 0x1 PUSH2 0x100 EXP DUP2 SLOAD DUP2 PUSH20 0xFFFFFFFFFFFFFFFFFFFFFFFFFFFFFFFFFFFFFFFF MUL NOT AND SWAP1 DUP4 PUSH20 0xFFFFFFFFFFFFFFFFFFFFFFFFFFFFFFFFFFFFFFFF AND MUL OR SWAP1 SSTORE POP DUP1 PUSH1 0x2 ADD PUSH1 0x0 SWAP1 SLOAD SWAP1 PUSH2 0x100 EXP SWAP1 DIV PUSH1 0xFF AND ISZERO PUSH2 0x4D5 JUMPI DUP2 PUSH1 0x1 ADD SLOAD PUSH1 0x1 DUP3 PUSH1 0x3 ADD SLOAD DUP2 SLOAD DUP2 LT PUSH2 0x4A9 JUMPI PUSH2 0x4A8 PUSH2 0xD3B JUMP JUMPDEST JUMPDEST SWAP1 PUSH1 0x0 MSTORE PUSH1 0x20 PUSH1 0x0 KECCAK256 SWAP1 PUSH1 0x2 MUL ADD PUSH1 0x1 ADD PUSH1 0x0 DUP3 DUP3 SLOAD PUSH2 0x4C9 SWAP2 SWAP1 PUSH2 0xD99 JUMP JUMPDEST SWAP3 POP POP DUP2 SWAP1 SSTORE POP PUSH2 0x4FF JUMP JUMPDEST DUP2 PUSH1 0x1 ADD SLOAD DUP2 PUSH1 0x1 ADD PUSH1 0x0 DUP3 DUP3 SLOAD PUSH2 0x4ED SWAP2 SWAP1 PUSH2 0xD99 JUMP JUMPDEST SWAP3 POP POP DUP2 SWAP1 SSTORE POP PUSH1 0x0 DUP3 PUSH1 0x1 ADD DUP2 SWAP1 SSTORE POP JUMPDEST POP POP POP JUMP JUMPDEST PUSH1 0x0 DUP1 PUSH1 0x0 SWAP1 POP PUSH1 0x0 JUMPDEST PUSH1 0x1 DUP1 SLOAD SWAP1 POP DUP2 LT ISZERO PUSH2 0x587 JUMPI DUP2 PUSH1 0x1 DUP3 DUP2 SLOAD DUP2 LT PUSH2 0x530 JUMPI PUSH2 0x52F PUSH2 0xD3B JUMP JUMPDEST JUMPDEST SWAP1 PUSH1 0x0 MSTORE PUSH1 0x20 PUSH1 0x0 KECCAK256 SWAP1 PUSH1 0x2 MUL ADD PUSH1 0x1 ADD SLOAD GT ISZERO PUSH2 0x574 JUMPI PUSH1 0x1 DUP2 DUP2 SLOAD DUP2 LT PUSH2 0x55C JUMPI PUSH2 0x55B PUSH2 0xD3B JUMP JUMPDEST JUMPDEST SWAP1 PUSH1 0x0 MSTORE PUSH1 0x20 PUSH1 0x0 KECCAK256 SWAP1 PUSH1 0x2 MUL ADD PUSH1 0x1 ADD SLOAD SWAP2 POP DUP1 SWAP3 POP JUMPDEST DUP1 DUP1 PUSH2 0x57F SWAP1 PUSH2 0xECB JUMP JUMPDEST SWAP2 POP POP PUSH2 0x50E JUMP JUMPDEST POP POP SWAP1 JUMP JUMPDEST PUSH1 0x2 PUSH1 0x0 SWAP1 SLOAD SWAP1 PUSH2 0x100 EXP SWAP1 DIV PUSH20 0xFFFFFFFFFFFFFFFFFFFFFFFFFFFFFFFFFFFFFFFF AND PUSH20 0xFFFFFFFFFFFFFFFFFFFFFFFFFFFFFFFFFFFFFFFF AND CALLER PUSH20 0xFFFFFFFFFFFFFFFFFFFFFFFFFFFFFFFFFFFFFFFF AND EQ PUSH2 0x61C JUMPI PUSH1 0x40 MLOAD PUSH32 0x8C379A000000000000000000000000000000000000000000000000000000000 DUP2 MSTORE PUSH1 0x4 ADD PUSH2 0x613 SWAP1 PUSH2 0xF85 JUMP JUMPDEST PUSH1 0x40 MLOAD DUP1 SWAP2 SUB SWAP1 REVERT JUMPDEST PUSH1 0x0 DUP1 DUP3 PUSH20 0xFFFFFFFFFFFFFFFFFFFFFFFFFFFFFFFFFFFFFFFF AND PUSH20 0xFFFFFFFFFFFFFFFFFFFFFFFFFFFFFFFFFFFFFFFF AND DUP2 MSTORE PUSH1 0x20 ADD SWAP1 DUP2 MSTORE PUSH1 0x20 ADD PUSH1 0x0 KECCAK256 PUSH1 0x2 ADD PUSH1 0x0 SWAP1 SLOAD SWAP1 PUSH2 0x100 EXP SWAP1 DIV PUSH1 0xFF AND ISZERO PUSH2 0x6AB JUMPI PUSH1 0x40 MLOAD PUSH32 0x8C379A000000000000000000000000000000000000000000000000000000000 DUP2 MSTORE PUSH1 0x4 ADD PUSH2 0x6A2 SWAP1 PUSH2 0x1017 JUMP JUMPDEST PUSH1 0x40 MLOAD DUP1 SWAP2 SUB SWAP1 REVERT JUMPDEST PUSH1 0x0 DUP1 PUSH1 0x0 DUP4 PUSH20 0xFFFFFFFFFFFFFFFFFFFFFFFFFFFFFFFFFFFFFFFF AND PUSH20 0xFFFFFFFFFFFFFFFFFFFFFFFFFFFFFFFFFFFFFFFF AND DUP2 MSTORE PUSH1 0x20 ADD SWAP1 DUP2 MSTORE PUSH1 0x20 ADD PUSH1 0x0 KECCAK256 PUSH1 0x1 ADD SLOAD EQ PUSH2 0x72F JUMPI PUSH1 0x40 MLOAD PUSH32 0x8C379A000000000000000000000000000000000000000000000000000000000 DUP2 MSTORE PUSH1 0x4 ADD PUSH2 0x726 SWAP1 PUSH2 0x10A9 JUMP JUMPDEST PUSH1 0x40 MLOAD DUP1 SWAP2 SUB SWAP1 REVERT JUMPDEST PUSH1 0x1 PUSH1 0x0 DUP1 DUP4 PUSH20 0xFFFFFFFFFFFFFFFFFFFFFFFFFFFFFFFFFFFFFFFF AND PUSH20 0xFFFFFFFFFFFFFFFFFFFFFFFFFFFFFFFFFFFFFFFF AND DUP2 MSTORE PUSH1 0x20 ADD SWAP1 DUP2 MSTORE PUSH1 0x20 ADD PUSH1 0x0 KECCAK256 PUSH1 0x1 ADD DUP2 SWAP1 SSTORE POP POP JUMP JUMPDEST PUSH1 0x0 PUSH1 0x20 MSTORE DUP1 PUSH1 0x0 MSTORE PUSH1 0x40 PUSH1 0x0 KECCAK256 PUSH1 0x0 SWAP2 POP SWAP1 POP DUP1 PUSH1 0x0 ADD PUSH1 0x0 SWAP1 SLOAD SWAP1 PUSH2 0x100 EXP SWAP1 DIV PUSH20 0xFFFFFFFFFFFFFFFFFFFFFFFFFFFFFFFFFFFFFFFF AND SWAP1 DUP1 PUSH1 0x1 ADD SLOAD SWAP1 DUP1 PUSH1 0x2 ADD PUSH1 0x0 SWAP1 SLOAD SWAP1 PUSH2 0x100 EXP SWAP1 DIV PUSH1 0xFF AND SWAP1 DUP1 PUSH1 0x2 ADD PUSH1 0x1 SWAP1 SLOAD SWAP1 PUSH2 0x100 EXP SWAP1 DIV PUSH20 0xFFFFFFFFFFFFFFFFFFFFFFFFFFFFFFFFFFFFFFFF AND SWAP1 DUP1 PUSH1 0x3 ADD SLOAD SWAP1 POP DUP6 JUMP JUMPDEST PUSH1 0x0 PUSH1 0x1 PUSH2 0x808 PUSH2 0x504 JUMP JUMPDEST DUP2 SLOAD DUP2 LT PUSH2 0x819 JUMPI PUSH2 0x818 PUSH2 0xD3B JUMP JUMPDEST JUMPDEST SWAP1 PUSH1 0x0 MSTORE PUSH1 0x20 PUSH1 0x0 KECCAK256 SWAP1 PUSH1 0x2 MUL ADD PUSH1 0x0 ADD SLOAD SWAP1 POP SWAP1 JUMP JUMPDEST DUP1 PUSH20 0xFFFFFFFFFFFFFFFFFFFFFFFFFFFFFFFFFFFFFFFF AND PUSH1 0x0 DUP1 DUP4 PUSH20 0xFFFFFFFFFFFFFFFFFFFFFFFFFFFFFFFFFFFFFFFF AND PUSH20 0xFFFFFFFFFFFFFFFFFFFFFFFFFFFFFFFFFFFFFFFF AND DUP2 MSTORE PUSH1 0x20 ADD SWAP1 DUP2 MSTORE PUSH1 0x20 ADD PUSH1 0x0 KECCAK256 PUSH1 0x0 ADD PUSH1 0x0 SWAP1 SLOAD SWAP1 PUSH2 0x100 EXP SWAP1 DIV PUSH20 0xFFFFFFFFFFFFFFFFFFFFFFFFFFFFFFFFFFFFFFFF AND PUSH20 0xFFFFFFFFFFFFFFFFFFFFFFFFFFFFFFFFFFFFFFFF AND SUB PUSH2 0x8FF JUMPI PUSH1 0x40 MLOAD PUSH32 0x8C379A000000000000000000000000000000000000000000000000000000000 DUP2 MSTORE PUSH1 0x4 ADD PUSH2 0x8F6 SWAP1 PUSH2 0x1115 JUMP JUMPDEST PUSH1 0x40 MLOAD DUP1 SWAP2 SUB SWAP1 REVERT JUMPDEST PUSH1 0x40 MLOAD DUP1 PUSH1 0xA0 ADD PUSH1 0x40 MSTORE DUP1 DUP3 PUSH20 0xFFFFFFFFFFFFFFFFFFFFFFFFFFFFFFFFFFFFFFFF AND DUP2 MSTORE PUSH1 0x20 ADD PUSH1 0x0 DUP2 MSTORE PUSH1 0x20 ADD PUSH1 0x0 ISZERO ISZERO DUP2 MSTORE PUSH1 0x20 ADD ADDRESS PUSH20 0xFFFFFFFFFFFFFFFFFFFFFFFFFFFFFFFFFFFFFFFF AND DUP2 MSTORE PUSH1 0x20 ADD PUSH2 0x2710 DUP2 MSTORE POP PUSH1 0x0 DUP1 DUP4 PUSH20 0xFFFFFFFFFFFFFFFFFFFFFFFFFFFFFFFFFFFFFFFF AND PUSH20 0xFFFFFFFFFFFFFFFFFFFFFFFFFFFFFFFFFFFFFFFF AND DUP2 MSTORE PUSH1 0x20 ADD SWAP1 DUP2 MSTORE PUSH1 0x20 ADD PUSH1 0x0 KECCAK256 PUSH1 0x0 DUP3 ADD MLOAD DUP2 PUSH1 0x0 ADD PUSH1 0x0 PUSH2 0x100 EXP DUP2 SLOAD DUP2 PUSH20 0xFFFFFFFFFFFFFFFFFFFFFFFFFFFFFFFFFFFFFFFF MUL NOT AND SWAP1 DUP4 PUSH20 0xFFFFFFFFFFFFFFFFFFFFFFFFFFFFFFFFFFFFFFFF AND MUL OR SWAP1 SSTORE POP PUSH1 0x20 DUP3 ADD MLOAD DUP2 PUSH1 0x1 ADD SSTORE PUSH1 0x40 DUP3 ADD MLOAD DUP2 PUSH1 0x2 ADD PUSH1 0x0 PUSH2 0x100 EXP DUP2 SLOAD DUP2 PUSH1 0xFF MUL NOT AND SWAP1 DUP4 ISZERO ISZERO MUL OR SWAP1 SSTORE POP PUSH1 0x60 DUP3 ADD MLOAD DUP2 PUSH1 0x2 ADD PUSH1 0x1 PUSH2 0x100 EXP DUP2 SLOAD DUP2 PUSH20 0xFFFFFFFFFFFFFFFFFFFFFFFFFFFFFFFFFFFFFFFF MUL NOT AND SWAP1 DUP4 PUSH20 0xFFFFFFFFFFFFFFFFFFFFFFFFFFFFFFFFFFFFFFFF AND MUL OR SWAP1 SSTORE POP PUSH1 0x80 DUP3 ADD MLOAD DUP2 PUSH1 0x3 ADD SSTORE SWAP1 POP POP POP JUMP JUMPDEST PUSH1 0x0 DUP1 REVERT JUMPDEST PUSH1 0x0 DUP2 SWAP1 POP SWAP2 SWAP1 POP JUMP JUMPDEST PUSH2 0xA76 DUP2 PUSH2 0xA63 JUMP JUMPDEST DUP2 EQ PUSH2 0xA81 JUMPI PUSH1 0x0 DUP1 REVERT JUMPDEST POP JUMP JUMPDEST PUSH1 0x0 DUP2 CALLDATALOAD SWAP1 POP PUSH2 0xA93 DUP2 PUSH2 0xA6D JUMP JUMPDEST SWAP3 SWAP2 POP POP JUMP JUMPDEST PUSH1 0x0 PUSH1 0x20 DUP3 DUP5 SUB SLT ISZERO PUSH2 0xAAF JUMPI PUSH2 0xAAE PUSH2 0xA5E JUMP JUMPDEST JUMPDEST PUSH1 0x0 PUSH2 0xABD DUP5 DUP3 DUP6 ADD PUSH2 0xA84 JUMP JUMPDEST SWAP2 POP POP SWAP3 SWAP2 POP POP JUMP JUMPDEST PUSH1 0x0 PUSH20 0xFFFFFFFFFFFFFFFFFFFFFFFFFFFFFFFFFFFFFFFF DUP3 AND SWAP1 POP SWAP2 SWAP1 POP JUMP JUMPDEST PUSH1 0x0 PUSH2 0xAF1 DUP3 PUSH2 0xAC6 JUMP JUMPDEST SWAP1 POP SWAP2 SWAP1 POP JUMP JUMPDEST PUSH2 0xB01 DUP2 PUSH2 0xAE6 JUMP JUMPDEST DUP2 EQ PUSH2 0xB0C JUMPI PUSH1 0x0 DUP1 REVERT JUMPDEST POP JUMP JUMPDEST PUSH1 0x0 DUP2 CALLDATALOAD SWAP1 POP PUSH2 0xB1E DUP2 PUSH2 0xAF8 JUMP JUMPDEST SWAP3 SWAP2 POP POP JUMP JUMPDEST PUSH1 0x0 PUSH1 0x20 DUP3 DUP5 SUB SLT ISZERO PUSH2 0xB3A JUMPI PUSH2 0xB39 PUSH2 0xA5E JUMP JUMPDEST JUMPDEST PUSH1 0x0 PUSH2 0xB48 DUP5 DUP3 DUP6 ADD PUSH2 0xB0F JUMP JUMPDEST SWAP2 POP POP SWAP3 SWAP2 POP POP JUMP JUMPDEST PUSH2 0xB5A DUP2 PUSH2 0xA63 JUMP JUMPDEST DUP3 MSTORE POP POP JUMP JUMPDEST PUSH1 0x0 PUSH1 0x20 DUP3 ADD SWAP1 POP PUSH2 0xB75 PUSH1 0x0 DUP4 ADD DUP5 PUSH2 0xB51 JUMP JUMPDEST SWAP3 SWAP2 POP POP JUMP JUMPDEST PUSH2 0xB84 DUP2 PUSH2 0xAE6 JUMP JUMPDEST DUP3 MSTORE POP POP JUMP JUMPDEST PUSH1 0x0 DUP2 ISZERO ISZERO SWAP1 POP SWAP2 SWAP1 POP JUMP JUMPDEST PUSH2 0xB9F DUP2 PUSH2 0xB8A JUMP JUMPDEST DUP3 MSTORE POP POP JUMP JUMPDEST PUSH1 0x0 PUSH1 0xA0 DUP3 ADD SWAP1 POP PUSH2 0xBBA PUSH1 0x0 DUP4 ADD DUP9 PUSH2 0xB7B JUMP JUMPDEST PUSH2 0xBC7 PUSH1 0x20 DUP4 ADD DUP8 PUSH2 0xB51 JUMP JUMPDEST PUSH2 0xBD4 PUSH1 0x40 DUP4 ADD DUP7 PUSH2 0xB96 JUMP JUMPDEST PUSH2 0xBE1 PUSH1 0x60 DUP4 ADD DUP6 PUSH2 0xB7B JUMP JUMPDEST PUSH2 0xBEE PUSH1 0x80 DUP4 ADD DUP5 PUSH2 0xB51 JUMP JUMPDEST SWAP7 SWAP6 POP POP POP POP POP POP JUMP JUMPDEST PUSH1 0x0 DUP2 SWAP1 POP SWAP2 SWAP1 POP JUMP JUMPDEST PUSH2 0xC0B DUP2 PUSH2 0xBF8 JUMP JUMPDEST DUP3 MSTORE POP POP JUMP JUMPDEST PUSH1 0x0 PUSH1 0x20 DUP3 ADD SWAP1 POP PUSH2 0xC26 PUSH1 0x0 DUP4 ADD DUP5 PUSH2 0xC02 JUMP JUMPDEST SWAP3 SWAP2 POP POP JUMP JUMPDEST PUSH1 0x0 DUP3 DUP3 MSTORE PUSH1 0x20 DUP3 ADD SWAP1 POP SWAP3 SWAP2 POP POP JUMP JUMPDEST PUSH32 0x566F74657220686173204E6F20726967687420746F20566F7465204F5220416C PUSH1 0x0 DUP3 ADD MSTORE PUSH32 0x726561647920566F746564210000000000000000000000000000000000000000 PUSH1 0x20 DUP3 ADD MSTORE POP JUMP JUMPDEST PUSH1 0x0 PUSH2 0xC99 PUSH1 0x2C DUP4 PUSH2 0xC2C JUMP JUMPDEST SWAP2 POP PUSH2 0xCA4 DUP3 PUSH2 0xC3D JUMP JUMPDEST PUSH1 0x40 DUP3 ADD SWAP1 POP SWAP2 SWAP1 POP JUMP JUMPDEST PUSH1 0x0 PUSH1 0x20 DUP3 ADD SWAP1 POP DUP2 DUP2 SUB PUSH1 0x0 DUP4 ADD MSTORE PUSH2 0xCC8 DUP2 PUSH2 0xC8C JUMP JUMPDEST SWAP1 POP SWAP2 SWAP1 POP JUMP JUMPDEST PUSH32 0x566F7465722068617320616C726561647920766F746564000000000000000000 PUSH1 0x0 DUP3 ADD MSTORE POP JUMP JUMPDEST PUSH1 0x0 PUSH2 0xD05 PUSH1 0x17 DUP4 PUSH2 0xC2C JUMP JUMPDEST SWAP2 POP PUSH2 0xD10 DUP3 PUSH2 0xCCF JUMP JUMPDEST PUSH1 0x20 DUP3 ADD SWAP1 POP SWAP2 SWAP1 POP JUMP JUMPDEST PUSH1 0x0 PUSH1 0x20 DUP3 ADD SWAP1 POP DUP2 DUP2 SUB PUSH1 0x0 DUP4 ADD MSTORE PUSH2 0xD34 DUP2 PUSH2 0xCF8 JUMP JUMPDEST SWAP1 POP SWAP2 SWAP1 POP JUMP JUMPDEST PUSH32 0x4E487B7100000000000000000000000000000000000000000000000000000000 PUSH1 0x0 MSTORE PUSH1 0x32 PUSH1 0x4 MSTORE PUSH1 0x24 PUSH1 0x0 REVERT JUMPDEST PUSH32 0x4E487B7100000000000000000000000000000000000000000000000000000000 PUSH1 0x0 MSTORE PUSH1 0x11 PUSH1 0x4 MSTORE PUSH1 0x24 PUSH1 0x0 REVERT JUMPDEST PUSH1 0x0 PUSH2 0xDA4 DUP3 PUSH2 0xA63 JUMP JUMPDEST SWAP2 POP PUSH2 0xDAF DUP4 PUSH2 0xA63 JUMP JUMPDEST SWAP3 POP DUP3 DUP3 ADD SWAP1 POP DUP1 DUP3 GT ISZERO PUSH2 0xDC7 JUMPI PUSH2 0xDC6 PUSH2 0xD6A JUMP JUMPDEST JUMPDEST SWAP3 SWAP2 POP POP JUMP JUMPDEST PUSH32 0x566F74657220686173206E6F20726967687420746F20566F7465000000000000 PUSH1 0x0 DUP3 ADD MSTORE POP JUMP JUMPDEST PUSH1 0x0 PUSH2 0xE03 PUSH1 0x1A DUP4 PUSH2 0xC2C JUMP JUMPDEST SWAP2 POP PUSH2 0xE0E DUP3 PUSH2 0xDCD JUMP JUMPDEST PUSH1 0x20 DUP3 ADD SWAP1 POP SWAP2 SWAP1 POP JUMP JUMPDEST PUSH1 0x0 PUSH1 0x20 DUP3 ADD SWAP1 POP DUP2 DUP2 SUB PUSH1 0x0 DUP4 ADD MSTORE PUSH2 0xE32 DUP2 PUSH2 0xDF6 JUMP JUMPDEST SWAP1 POP SWAP2 SWAP1 POP JUMP JUMPDEST PUSH32 0x43616E6E6F742064656C656761746520746F20616E6F7468657220766F746572 PUSH1 0x0 DUP3 ADD MSTORE PUSH32 0x284163636F756E7429207468617420686173206E6F2077656967687400000000 PUSH1 0x20 DUP3 ADD MSTORE POP JUMP JUMPDEST PUSH1 0x0 PUSH2 0xE95 PUSH1 0x3C DUP4 PUSH2 0xC2C JUMP JUMPDEST SWAP2 POP PUSH2 0xEA0 DUP3 PUSH2 0xE39 JUMP JUMPDEST PUSH1 0x40 DUP3 ADD SWAP1 POP SWAP2 SWAP1 POP JUMP JUMPDEST PUSH1 0x0 PUSH1 0x20 DUP3 ADD SWAP1 POP DUP2 DUP2 SUB PUSH1 0x0 DUP4 ADD MSTORE PUSH2 0xEC4 DUP2 PUSH2 0xE88 JUMP JUMPDEST SWAP1 POP SWAP2 SWAP1 POP JUMP JUMPDEST PUSH1 0x0 PUSH2 0xED6 DUP3 PUSH2 0xA63 JUMP JUMPDEST SWAP2 POP PUSH32 0xFFFFFFFFFFFFFFFFFFFFFFFFFFFFFFFFFFFFFFFFFFFFFFFFFFFFFFFFFFFFFFFF DUP3 SUB PUSH2 0xF08 JUMPI PUSH2 0xF07 PUSH2 0xD6A JUMP JUMPDEST JUMPDEST PUSH1 0x1 DUP3 ADD SWAP1 POP SWAP2 SWAP1 POP JUMP JUMPDEST PUSH32 0x4F6E6C79204368616972706572736F6E2063616E2070726F7669646520766F74 PUSH1 0x0 DUP3 ADD MSTORE PUSH32 0x696E672072696768747300000000000000000000000000000000000000000000 PUSH1 0x20 DUP3 ADD MSTORE POP JUMP JUMPDEST PUSH1 0x0 PUSH2 0xF6F PUSH1 0x2A DUP4 PUSH2 0xC2C JUMP JUMPDEST SWAP2 POP PUSH2 0xF7A DUP3 PUSH2 0xF13 JUMP JUMPDEST PUSH1 0x40 DUP3 ADD SWAP1 POP SWAP2 SWAP1 POP JUMP JUMPDEST PUSH1 0x0 PUSH1 0x20 DUP3 ADD SWAP1 POP DUP2 DUP2 SUB PUSH1 0x0 DUP4 ADD MSTORE PUSH2 0xF9E DUP2 PUSH2 0xF62 JUMP JUMPDEST SWAP1 POP SWAP2 SWAP1 POP JUMP JUMPDEST PUSH32 0x52696768747320616C7265616479206578697374733B205468697320566F7465 PUSH1 0x0 DUP3 ADD MSTORE PUSH32 0x722068617320616C726561647920566F7465642E000000000000000000000000 PUSH1 0x20 DUP3 ADD MSTORE POP JUMP JUMPDEST PUSH1 0x0 PUSH2 0x1001 PUSH1 0x34 DUP4 PUSH2 0xC2C JUMP JUMPDEST SWAP2 POP PUSH2 0x100C DUP3 PUSH2 0xFA5 JUMP JUMPDEST PUSH1 0x40 DUP3 ADD SWAP1 POP SWAP2 SWAP1 POP JUMP JUMPDEST PUSH1 0x0 PUSH1 0x20 DUP3 ADD SWAP1 POP DUP2 DUP2 SUB PUSH1 0x0 DUP4 ADD MSTORE PUSH2 0x1030 DUP2 PUSH2 0xFF4 JUMP JUMPDEST SWAP1 POP SWAP2 SWAP1 POP JUMP JUMPDEST PUSH32 0x5468697320766F74657220616C72656164792068617320726967687420746F20 PUSH1 0x0 DUP3 ADD MSTORE PUSH32 0x766F746500000000000000000000000000000000000000000000000000000000 PUSH1 0x20 DUP3 ADD MSTORE POP JUMP JUMPDEST PUSH1 0x0 PUSH2 0x1093 PUSH1 0x24 DUP4 PUSH2 0xC2C JUMP JUMPDEST SWAP2 POP PUSH2 0x109E DUP3 PUSH2 0x1037 JUMP JUMPDEST PUSH1 0x40 DUP3 ADD SWAP1 POP SWAP2 SWAP1 POP JUMP JUMPDEST PUSH1 0x0 PUSH1 0x20 DUP3 ADD SWAP1 POP DUP2 DUP2 SUB PUSH1 0x0 DUP4 ADD MSTORE PUSH2 0x10C2 DUP2 PUSH2 0x1086 JUMP JUMPDEST SWAP1 POP SWAP2 SWAP1 POP JUMP JUMPDEST PUSH32 0x5468697320566F7465722068617320616C72656164792065786974732E000000 PUSH1 0x0 DUP3 ADD MSTORE POP JUMP JUMPDEST PUSH1 0x0 PUSH2 0x10FF PUSH1 0x1D DUP4 PUSH2 0xC2C JUMP JUMPDEST SWAP2 POP PUSH2 0x110A DUP3 PUSH2 0x10C9 JUMP JUMPDEST PUSH1 0x20 DUP3 ADD SWAP1 POP SWAP2 SWAP1 POP JUMP JUMPDEST PUSH1 0x0 PUSH1 0x20 DUP3 ADD SWAP1 POP DUP2 DUP2 SUB PUSH1 0x0 DUP4 ADD MSTORE PUSH2 0x112E DUP2 PUSH2 0x10F2 JUMP JUMPDEST SWAP1 POP SWAP2 SWAP1 POP JUMP INVALID LOG2 PUSH5 0x6970667358 0x22 SLT KECCAK256 PUSH7 0xBF2D5420A682E0 RETURNDATACOPY BYTE SAR LOG3 SWAP2 0x29 0xAF JUMPI 0xEA MSTORE BYTE SWAP14 0xAF BLOCKHASH SWAP4 SWAP12 0xAD 0xE4 PUSH7 0x20853D505B6473 PUSH16 0x6C634300081100330000000000000000 "},"methodIdentifiers":{"addVoter(address)":"f4ab9adf","delegate(address)":"5c19a95c","giveRightToVote(address)":"9e7b8d61","vote(uint256)":"0121b93f","voters(address)":"a3ec138d","winnerName()":"e2ba53f0","winningProposal()":"609ff1bd"}}}}}