{"contracts/solidity-by-example/MerkeProof.sol":{"Merkle":{"abi":[{"inputs":[],"stateMutability":"nonpayable","type":"constructor"},{"inputs":[],"name":"getRoot","outputs":[{"internalType":"bytes32","name":"","type":"bytes32"}],"stateMutability":"view","type":"function"}],"evm":{"bytecode":{"linkReferences":{},"object":"608060405234801561001057600080fd5b50600060405180608001604052806040518060400160405280600a81526020017f4d65202d2d3e20596f750000000000000000000000000000000000000000000081525081526020016040518060400160405280600f81526020017f4d61726b202d2d3e20416e64726577000000000000000000000000000000000081525081526020016040518060400160405280600d81526020017f426f62202d2d3e2044617669730000000000000000000000000000000000000081525081526020016040518060400160405280600d81526020017f546f6d202d2d3e204a6572727900000000000000000000000000000000000000815250815250905060005b60048160ff161015610195576000828260ff1660048110610131576101306102b5565b5b60200201516040516020016101469190610355565b604051602081830303815290604052805190602001209080600181540180825580915050600190039060005260206000200160009091909190915055808061018d906103a8565b91505061010d565b5060006004905060005b60008211156102ad5760005b6001836101b891906103db565b8160ff16101561028a576000808260ff16846101d4919061040f565b815481106101e5576101e46102b5565b5b9060005260206000200154600060018460ff1686610203919061040f565b61020d919061040f565b8154811061021e5761021d6102b5565b5b906000526020600020015460405160200161023a92919061046e565b604051602081830303815290604052805190602001209080600181540180825580915050600190039060005260206000200160009091909190915055600281610283919061049a565b90506101ab565b508181610297919061040f565b90506002826102a691906104fe565b915061019f565b50505061052f565b7f4e487b7100000000000000000000000000000000000000000000000000000000600052603260045260246000fd5b600081519050919050565b600081905092915050565b60005b838110156103185780820151818401526020810190506102fd565b60008484015250505050565b600061032f826102e4565b61033981856102ef565b93506103498185602086016102fa565b80840191505092915050565b60006103618284610324565b915081905092915050565b7f4e487b7100000000000000000000000000000000000000000000000000000000600052601160045260246000fd5b600060ff82169050919050565b60006103b38261039b565b915060ff82036103c6576103c561036c565b5b600182019050919050565b6000819050919050565b60006103e6826103d1565b91506103f1836103d1565b92508282039050818111156104095761040861036c565b5b92915050565b600061041a826103d1565b9150610425836103d1565b925082820190508082111561043d5761043c61036c565b5b92915050565b6000819050919050565b6000819050919050565b61046861046382610443565b61044d565b82525050565b600061047a8285610457565b60208201915061048a8284610457565b6020820191508190509392505050565b60006104a58261039b565b91506104b08361039b565b9250828201905060ff8111156104c9576104c861036c565b5b92915050565b7f4e487b7100000000000000000000000000000000000000000000000000000000600052601260045260246000fd5b6000610509826103d1565b9150610514836103d1565b925082610524576105236104cf565b5b828204905092915050565b61018a8061053e6000396000f3fe608060405234801561001057600080fd5b506004361061002b5760003560e01c80635ca1e16514610030575b600080fd5b61003861004e565b604051610045919061009d565b60405180910390f35b600080600160008054905061006391906100f1565b8154811061007457610073610125565b5b9060005260206000200154905090565b6000819050919050565b61009781610084565b82525050565b60006020820190506100b2600083018461008e565b92915050565b6000819050919050565b7f4e487b7100000000000000000000000000000000000000000000000000000000600052601160045260246000fd5b60006100fc826100b8565b9150610107836100b8565b925082820390508181111561011f5761011e6100c2565b5b92915050565b7f4e487b7100000000000000000000000000000000000000000000000000000000600052603260045260246000fdfea264697066735822122022ade55a52ed6003ca355cbb6b43042a155df5ca102bb5cff678d274f4c9673764736f6c63430008110033","opcodes":"PUSH1 0x80 PUSH1 0x40 MSTORE CALLVALUE DUP1 ISZERO PUSH2 0x10 JUMPI PUSH1 0x0 DUP1 REVERT JUMPDEST POP PUSH1 0x0 PUSH1 0x40 MLOAD DUP1 PUSH1 0x80 ADD PUSH1 0x40 MSTORE DUP1 PUSH1 0x40 MLOAD DUP1 PUSH1 0x40 ADD PUSH1 0x40 MSTORE DUP1 PUSH1 0xA DUP2 MSTORE PUSH1 0x20 ADD PUSH32 0x4D65202D2D3E20596F7500000000000000000000000000000000000000000000 DUP2 MSTORE POP DUP2 MSTORE PUSH1 0x20 ADD PUSH1 0x40 MLOAD DUP1 PUSH1 0x40 ADD PUSH1 0x40 MSTORE DUP1 PUSH1 0xF DUP2 MSTORE PUSH1 0x20 ADD PUSH32 0x4D61726B202D2D3E20416E647265770000000000000000000000000000000000 DUP2 MSTORE POP DUP2 MSTORE PUSH1 0x20 ADD PUSH1 0x40 MLOAD DUP1 PUSH1 0x40 ADD PUSH1 0x40 MSTORE DUP1 PUSH1 0xD DUP2 MSTORE PUSH1 0x20 ADD PUSH32 0x426F62202D2D3E20446176697300000000000000000000000000000000000000 DUP2 MSTORE POP DUP2 MSTORE PUSH1 0x20 ADD PUSH1 0x40 MLOAD DUP1 PUSH1 0x40 ADD PUSH1 0x40 MSTORE DUP1 PUSH1 0xD DUP2 MSTORE PUSH1 0x20 ADD PUSH32 0x546F6D202D2D3E204A6572727900000000000000000000000000000000000000 DUP2 MSTORE POP DUP2 MSTORE POP SWAP1 POP PUSH1 0x0 JUMPDEST PUSH1 0x4 DUP2 PUSH1 0xFF AND LT ISZERO PUSH2 0x195 JUMPI PUSH1 0x0 DUP3 DUP3 PUSH1 0xFF AND PUSH1 0x4 DUP2 LT PUSH2 0x131 JUMPI PUSH2 0x130 PUSH2 0x2B5 JUMP JUMPDEST JUMPDEST PUSH1 0x20 MUL ADD MLOAD PUSH1 0x40 MLOAD PUSH1 0x20 ADD PUSH2 0x146 SWAP2 SWAP1 PUSH2 0x355 JUMP JUMPDEST PUSH1 0x40 MLOAD PUSH1 0x20 DUP2 DUP4 SUB SUB DUP2 MSTORE SWAP1 PUSH1 0x40 MSTORE DUP1 MLOAD SWAP1 PUSH1 0x20 ADD KECCAK256 SWAP1 DUP1 PUSH1 0x1 DUP2 SLOAD ADD DUP1 DUP3 SSTORE DUP1 SWAP2 POP POP PUSH1 0x1 SWAP1 SUB SWAP1 PUSH1 0x0 MSTORE PUSH1 0x20 PUSH1 0x0 KECCAK256 ADD PUSH1 0x0 SWAP1 SWAP2 SWAP1 SWAP2 SWAP1 SWAP2 POP SSTORE DUP1 DUP1 PUSH2 0x18D SWAP1 PUSH2 0x3A8 JUMP JUMPDEST SWAP2 POP POP PUSH2 0x10D JUMP JUMPDEST POP PUSH1 0x0 PUSH1 0x4 SWAP1 POP PUSH1 0x0 JUMPDEST PUSH1 0x0 DUP3 GT ISZERO PUSH2 0x2AD JUMPI PUSH1 0x0 JUMPDEST PUSH1 0x1 DUP4 PUSH2 0x1B8 SWAP2 SWAP1 PUSH2 0x3DB JUMP JUMPDEST DUP2 PUSH1 0xFF AND LT ISZERO PUSH2 0x28A JUMPI PUSH1 0x0 DUP1 DUP3 PUSH1 0xFF AND DUP5 PUSH2 0x1D4 SWAP2 SWAP1 PUSH2 0x40F JUMP JUMPDEST DUP2 SLOAD DUP2 LT PUSH2 0x1E5 JUMPI PUSH2 0x1E4 PUSH2 0x2B5 JUMP JUMPDEST JUMPDEST SWAP1 PUSH1 0x0 MSTORE PUSH1 0x20 PUSH1 0x0 KECCAK256 ADD SLOAD PUSH1 0x0 PUSH1 0x1 DUP5 PUSH1 0xFF AND DUP7 PUSH2 0x203 SWAP2 SWAP1 PUSH2 0x40F JUMP JUMPDEST PUSH2 0x20D SWAP2 SWAP1 PUSH2 0x40F JUMP JUMPDEST DUP2 SLOAD DUP2 LT PUSH2 0x21E JUMPI PUSH2 0x21D PUSH2 0x2B5 JUMP JUMPDEST JUMPDEST SWAP1 PUSH1 0x0 MSTORE PUSH1 0x20 PUSH1 0x0 KECCAK256 ADD SLOAD PUSH1 0x40 MLOAD PUSH1 0x20 ADD PUSH2 0x23A SWAP3 SWAP2 SWAP1 PUSH2 0x46E JUMP JUMPDEST PUSH1 0x40 MLOAD PUSH1 0x20 DUP2 DUP4 SUB SUB DUP2 MSTORE SWAP1 PUSH1 0x40 MSTORE DUP1 MLOAD SWAP1 PUSH1 0x20 ADD KECCAK256 SWAP1 DUP1 PUSH1 0x1 DUP2 SLOAD ADD DUP1 DUP3 SSTORE DUP1 SWAP2 POP POP PUSH1 0x1 SWAP1 SUB SWAP1 PUSH1 0x0 MSTORE PUSH1 0x20 PUSH1 0x0 KECCAK256 ADD PUSH1 0x0 SWAP1 SWAP2 SWAP1 SWAP2 SWAP1 SWAP2 POP SSTORE PUSH1 0x2 DUP2 PUSH2 0x283 SWAP2 SWAP1 PUSH2 0x49A JUMP JUMPDEST SWAP1 POP PUSH2 0x1AB JUMP JUMPDEST POP DUP2 DUP2 PUSH2 0x297 SWAP2 SWAP1 PUSH2 0x40F JUMP JUMPDEST SWAP1 POP PUSH1 0x2 DUP3 PUSH2 0x2A6 SWAP2 SWAP1 PUSH2 0x4FE JUMP JUMPDEST SWAP2 POP PUSH2 0x19F JUMP JUMPDEST POP POP POP PUSH2 0x52F JUMP JUMPDEST PUSH32 0x4E487B7100000000000000000000000000000000000000000000000000000000 PUSH1 0x0 MSTORE PUSH1 0x32 PUSH1 0x4 MSTORE PUSH1 0x24 PUSH1 0x0 REVERT JUMPDEST PUSH1 0x0 DUP2 MLOAD SWAP1 POP SWAP2 SWAP1 POP JUMP JUMPDEST PUSH1 0x0 DUP2 SWAP1 POP SWAP3 SWAP2 POP POP JUMP JUMPDEST PUSH1 0x0 JUMPDEST DUP4 DUP2 LT ISZERO PUSH2 0x318 JUMPI DUP1 DUP3 ADD MLOAD DUP2 DUP5 ADD MSTORE PUSH1 0x20 DUP2 ADD SWAP1 POP PUSH2 0x2FD JUMP JUMPDEST PUSH1 0x0 DUP5 DUP5 ADD MSTORE POP POP POP POP JUMP JUMPDEST PUSH1 0x0 PUSH2 0x32F DUP3 PUSH2 0x2E4 JUMP JUMPDEST PUSH2 0x339 DUP2 DUP6 PUSH2 0x2EF JUMP JUMPDEST SWAP4 POP PUSH2 0x349 DUP2 DUP6 PUSH1 0x20 DUP7 ADD PUSH2 0x2FA JUMP JUMPDEST DUP1 DUP5 ADD SWAP2 POP POP SWAP3 SWAP2 POP POP JUMP JUMPDEST PUSH1 0x0 PUSH2 0x361 DUP3 DUP5 PUSH2 0x324 JUMP JUMPDEST SWAP2 POP DUP2 SWAP1 POP SWAP3 SWAP2 POP POP JUMP JUMPDEST PUSH32 0x4E487B7100000000000000000000000000000000000000000000000000000000 PUSH1 0x0 MSTORE PUSH1 0x11 PUSH1 0x4 MSTORE PUSH1 0x24 PUSH1 0x0 REVERT JUMPDEST PUSH1 0x0 PUSH1 0xFF DUP3 AND SWAP1 POP SWAP2 SWAP1 POP JUMP JUMPDEST PUSH1 0x0 PUSH2 0x3B3 DUP3 PUSH2 0x39B JUMP JUMPDEST SWAP2 POP PUSH1 0xFF DUP3 SUB PUSH2 0x3C6 JUMPI PUSH2 0x3C5 PUSH2 0x36C JUMP JUMPDEST JUMPDEST PUSH1 0x1 DUP3 ADD SWAP1 POP SWAP2 SWAP1 POP JUMP JUMPDEST PUSH1 0x0 DUP2 SWAP1 POP SWAP2 SWAP1 POP JUMP JUMPDEST PUSH1 0x0 PUSH2 0x3E6 DUP3 PUSH2 0x3D1 JUMP JUMPDEST SWAP2 POP PUSH2 0x3F1 DUP4 PUSH2 0x3D1 JUMP JUMPDEST SWAP3 POP DUP3 DUP3 SUB SWAP1 POP DUP2 DUP2 GT ISZERO PUSH2 0x409 JUMPI PUSH2 0x408 PUSH2 0x36C JUMP JUMPDEST JUMPDEST SWAP3 SWAP2 POP POP JUMP JUMPDEST PUSH1 0x0 PUSH2 0x41A DUP3 PUSH2 0x3D1 JUMP JUMPDEST SWAP2 POP PUSH2 0x425 DUP4 PUSH2 0x3D1 JUMP JUMPDEST SWAP3 POP DUP3 DUP3 ADD SWAP1 POP DUP1 DUP3 GT ISZERO PUSH2 0x43D JUMPI PUSH2 0x43C PUSH2 0x36C JUMP JUMPDEST JUMPDEST SWAP3 SWAP2 POP POP JUMP JUMPDEST PUSH1 0x0 DUP2 SWAP1 POP SWAP2 SWAP1 POP JUMP JUMPDEST PUSH1 0x0 DUP2 SWAP1 POP SWAP2 SWAP1 POP JUMP JUMPDEST PUSH2 0x468 PUSH2 0x463 DUP3 PUSH2 0x443 JUMP JUMPDEST PUSH2 0x44D JUMP JUMPDEST DUP3 MSTORE POP POP JUMP JUMPDEST PUSH1 0x0 PUSH2 0x47A DUP3 DUP6 PUSH2 0x457 JUMP JUMPDEST PUSH1 0x20 DUP3 ADD SWAP2 POP PUSH2 0x48A DUP3 DUP5 PUSH2 0x457 JUMP JUMPDEST PUSH1 0x20 DUP3 ADD SWAP2 POP DUP2 SWAP1 POP SWAP4 SWAP3 POP POP POP JUMP JUMPDEST PUSH1 0x0 PUSH2 0x4A5 DUP3 PUSH2 0x39B JUMP JUMPDEST SWAP2 POP PUSH2 0x4B0 DUP4 PUSH2 0x39B JUMP JUMPDEST SWAP3 POP DUP3 DUP3 ADD SWAP1 POP PUSH1 0xFF DUP2 GT ISZERO PUSH2 0x4C9 JUMPI PUSH2 0x4C8 PUSH2 0x36C JUMP JUMPDEST JUMPDEST SWAP3 SWAP2 POP POP JUMP JUMPDEST PUSH32 0x4E487B7100000000000000000000000000000000000000000000000000000000 PUSH1 0x0 MSTORE PUSH1 0x12 PUSH1 0x4 MSTORE PUSH1 0x24 PUSH1 0x0 REVERT JUMPDEST PUSH1 0x0 PUSH2 0x509 DUP3 PUSH2 0x3D1 JUMP JUMPDEST SWAP2 POP PUSH2 0x514 DUP4 PUSH2 0x3D1 JUMP JUMPDEST SWAP3 POP DUP3 PUSH2 0x524 JUMPI PUSH2 0x523 PUSH2 0x4CF JUMP JUMPDEST JUMPDEST DUP3 DUP3 DIV SWAP1 POP SWAP3 SWAP2 POP POP JUMP JUMPDEST PUSH2 0x18A DUP1 PUSH2 0x53E PUSH1 0x0 CODECOPY PUSH1 0x0 RETURN INVALID PUSH1 0x80 PUSH1 0x40 MSTORE CALLVALUE DUP1 ISZERO PUSH2 0x10 JUMPI PUSH1 0x0 DUP1 REVERT JUMPDEST POP PUSH1 0x4 CALLDATASIZE LT PUSH2 0x2B JUMPI PUSH1 0x0 CALLDATALOAD PUSH1 0xE0 SHR DUP1 PUSH4 0x5CA1E165 EQ PUSH2 0x30 JUMPI JUMPDEST PUSH1 0x0 DUP1 REVERT JUMPDEST PUSH2 0x38 PUSH2 0x4E JUMP JUMPDEST PUSH1 0x40 MLOAD PUSH2 0x45 SWAP2 SWAP1 PUSH2 0x9D JUMP JUMPDEST PUSH1 0x40 MLOAD DUP1 SWAP2 SUB SWAP1 RETURN JUMPDEST PUSH1 0x0 DUP1 PUSH1 0x1 PUSH1 0x0 DUP1 SLOAD SWAP1 POP PUSH2 0x63 SWAP2 SWAP1 PUSH2 0xF1 JUMP JUMPDEST DUP2 SLOAD DUP2 LT PUSH2 0x74 JUMPI PUSH2 0x73 PUSH2 0x125 JUMP JUMPDEST JUMPDEST SWAP1 PUSH1 0x0 MSTORE PUSH1 0x20 PUSH1 0x0 KECCAK256 ADD SLOAD SWAP1 POP SWAP1 JUMP JUMPDEST PUSH1 0x0 DUP2 SWAP1 POP SWAP2 SWAP1 POP JUMP JUMPDEST PUSH2 0x97 DUP2 PUSH2 0x84 JUMP JUMPDEST DUP3 MSTORE POP POP JUMP JUMPDEST PUSH1 0x0 PUSH1 0x20 DUP3 ADD SWAP1 POP PUSH2 0xB2 PUSH1 0x0 DUP4 ADD DUP5 PUSH2 0x8E JUMP JUMPDEST SWAP3 SWAP2 POP POP JUMP JUMPDEST PUSH1 0x0 DUP2 SWAP1 POP SWAP2 SWAP1 POP JUMP JUMPDEST PUSH32 0x4E487B7100000000000000000000000000000000000000000000000000000000 PUSH1 0x0 MSTORE PUSH1 0x11 PUSH1 0x4 MSTORE PUSH1 0x24 PUSH1 0x0 REVERT JUMPDEST PUSH1 0x0 PUSH2 0xFC DUP3 PUSH2 0xB8 JUMP JUMPDEST SWAP2 POP PUSH2 0x107 DUP4 PUSH2 0xB8 JUMP JUMPDEST SWAP3 POP DUP3 DUP3 SUB SWAP1 POP DUP2 DUP2 GT ISZERO PUSH2 0x11F JUMPI PUSH2 0x11E PUSH2 0xC2 JUMP JUMPDEST JUMPDEST SWAP3 SWAP2 POP POP JUMP JUMPDEST PUSH32 0x4E487B7100000000000000000000000000000000000000000000000000000000 PUSH1 0x0 MSTORE PUSH1 0x32 PUSH1 0x4 MSTORE PUSH1 0x24 PUSH1 0x0 REVERT INVALID LOG2 PUSH5 0x6970667358 0x22 SLT KECCAK256 0x22 0xAD 0xE5 GAS MSTORE 0xED PUSH1 0x3 0xCA CALLDATALOAD 0x5C 0xBB PUSH12 0x43042A155DF5CA102BB5CFF6 PUSH25 0xD274F4C9673764736F6C634300081100330000000000000000 "},"methodIdentifiers":{"getRoot()":"5ca1e165"}}}}}