{"contracts/solidity-by-example/CarFactory.sol":{"Car":{"abi":[{"inputs":[{"internalType":"address","name":"_owner","type":"address"},{"internalType":"string","name":"_model","type":"string"}],"stateMutability":"payable","type":"constructor"},{"inputs":[],"name":"carAddr","outputs":[{"internalType":"address","name":"","type":"address"}],"stateMutability":"view","type":"function"},{"inputs":[],"name":"model","outputs":[{"internalType":"string","name":"","type":"string"}],"stateMutability":"view","type":"function"},{"inputs":[],"name":"owner","outputs":[{"internalType":"address","name":"","type":"address"}],"stateMutability":"view","type":"function"}],"evm":{"bytecode":{"linkReferences":{},"object":"608060405260405162000980380380620009808339818101604052810190620000299190620002bc565b816000806101000a81548173ffffffffffffffffffffffffffffffffffffffff021916908373ffffffffffffffffffffffffffffffffffffffff16021790555030600160006101000a81548173ffffffffffffffffffffffffffffffffffffffff021916908373ffffffffffffffffffffffffffffffffffffffff1602179055508060029081620000bb91906200056d565b50505062000654565b6000604051905090565b600080fd5b600080fd5b600073ffffffffffffffffffffffffffffffffffffffff82169050919050565b60006200010582620000d8565b9050919050565b6200011781620000f8565b81146200012357600080fd5b50565b60008151905062000137816200010c565b92915050565b600080fd5b600080fd5b6000601f19601f8301169050919050565b7f4e487b7100000000000000000000000000000000000000000000000000000000600052604160045260246000fd5b620001928262000147565b810181811067ffffffffffffffff82111715620001b457620001b362000158565b5b80604052505050565b6000620001c9620000c4565b9050620001d7828262000187565b919050565b600067ffffffffffffffff821115620001fa57620001f962000158565b5b620002058262000147565b9050602081019050919050565b60005b838110156200023257808201518184015260208101905062000215565b60008484015250505050565b6000620002556200024f84620001dc565b620001bd565b90508281526020810184848401111562000274576200027362000142565b5b6200028184828562000212565b509392505050565b600082601f830112620002a157620002a06200013d565b5b8151620002b38482602086016200023e565b91505092915050565b60008060408385031215620002d657620002d5620000ce565b5b6000620002e68582860162000126565b925050602083015167ffffffffffffffff8111156200030a5762000309620000d3565b5b620003188582860162000289565b9150509250929050565b600081519050919050565b7f4e487b7100000000000000000000000000000000000000000000000000000000600052602260045260246000fd5b600060028204905060018216806200037557607f821691505b6020821081036200038b576200038a6200032d565b5b50919050565b60008190508160005260206000209050919050565b60006020601f8301049050919050565b600082821b905092915050565b600060088302620003f57fffffffffffffffffffffffffffffffffffffffffffffffffffffffffffffffff82620003b6565b620004018683620003b6565b95508019841693508086168417925050509392505050565b6000819050919050565b6000819050919050565b60006200044e62000448620004428462000419565b62000423565b62000419565b9050919050565b6000819050919050565b6200046a836200042d565b62000482620004798262000455565b848454620003c3565b825550505050565b600090565b620004996200048a565b620004a68184846200045f565b505050565b5b81811015620004ce57620004c26000826200048f565b600181019050620004ac565b5050565b601f8211156200051d57620004e78162000391565b620004f284620003a6565b8101602085101562000502578190505b6200051a6200051185620003a6565b830182620004ab565b50505b505050565b600082821c905092915050565b6000620005426000198460080262000522565b1980831691505092915050565b60006200055d83836200052f565b9150826002028217905092915050565b620005788262000322565b67ffffffffffffffff81111562000594576200059362000158565b5b620005a082546200035c565b620005ad828285620004d2565b600060209050601f831160018114620005e55760008415620005d0578287015190505b620005dc85826200054f565b8655506200064c565b601f198416620005f58662000391565b60005b828110156200061f57848901518255600182019150602085019450602081019050620005f8565b868310156200063f57848901516200063b601f8916826200052f565b8355505b6001600288020188555050505b505050505050565b61031c80620006646000396000f3fe608060405234801561001057600080fd5b50600436106100415760003560e01c80630ad9d05214610046578063514fa676146100645780638da5cb5b14610082575b600080fd5b61004e6100a0565b60405161005b9190610208565b60405180910390f35b61006c61012e565b604051610079919061026b565b60405180910390f35b61008a610154565b604051610097919061026b565b60405180910390f35b600280546100ad906102b5565b80601f01602080910402602001604051908101604052809291908181526020018280546100d9906102b5565b80156101265780601f106100fb57610100808354040283529160200191610126565b820191906000526020600020905b81548152906001019060200180831161010957829003601f168201915b505050505081565b600160009054906101000a900473ffffffffffffffffffffffffffffffffffffffff1681565b60008054906101000a900473ffffffffffffffffffffffffffffffffffffffff1681565b600081519050919050565b600082825260208201905092915050565b60005b838110156101b2578082015181840152602081019050610197565b60008484015250505050565b6000601f19601f8301169050919050565b60006101da82610178565b6101e48185610183565b93506101f4818560208601610194565b6101fd816101be565b840191505092915050565b6000602082019050818103600083015261022281846101cf565b905092915050565b600073ffffffffffffffffffffffffffffffffffffffff82169050919050565b60006102558261022a565b9050919050565b6102658161024a565b82525050565b6000602082019050610280600083018461025c565b92915050565b7f4e487b7100000000000000000000000000000000000000000000000000000000600052602260045260246000fd5b600060028204905060018216806102cd57607f821691505b6020821081036102e0576102df610286565b5b5091905056fea264697066735822122000f3e4e69ca7c469f734a1213ccb3c5d0630a302dd610d730557af43e096d43d64736f6c63430008110033","opcodes":"PUSH1 0x80 PUSH1 0x40 MSTORE PUSH1 0x40 MLOAD PUSH3 0x980 CODESIZE SUB DUP1 PUSH3 0x980 DUP4 CODECOPY DUP2 DUP2 ADD PUSH1 0x40 MSTORE DUP2 ADD SWAP1 PUSH3 0x29 SWAP2 SWAP1 PUSH3 0x2BC JUMP JUMPDEST DUP2 PUSH1 0x0 DUP1 PUSH2 0x100 EXP DUP2 SLOAD DUP2 PUSH20 0xFFFFFFFFFFFFFFFFFFFFFFFFFFFFFFFFFFFFFFFF MUL NOT AND SWAP1 DUP4 PUSH20 0xFFFFFFFFFFFFFFFFFFFFFFFFFFFFFFFFFFFFFFFF AND MUL OR SWAP1 SSTORE POP ADDRESS PUSH1 0x1 PUSH1 0x0 PUSH2 0x100 EXP DUP2 SLOAD DUP2 PUSH20 0xFFFFFFFFFFFFFFFFFFFFFFFFFFFFFFFFFFFFFFFF MUL NOT AND SWAP1 DUP4 PUSH20 0xFFFFFFFFFFFFFFFFFFFFFFFFFFFFFFFFFFFFFFFF AND MUL OR SWAP1 SSTORE POP DUP1 PUSH1 0x2 SWAP1 DUP2 PUSH3 0xBB SWAP2 SWAP1 PUSH3 0x56D JUMP JUMPDEST POP POP POP PUSH3 0x654 JUMP JUMPDEST PUSH1 0x0 PUSH1 0x40 MLOAD SWAP1 POP SWAP1 JUMP JUMPDEST PUSH1 0x0 DUP1 REVERT JUMPDEST PUSH1 0x0 DUP1 REVERT JUMPDEST PUSH1 0x0 PUSH20 0xFFFFFFFFFFFFFFFFFFFFFFFFFFFFFFFFFFFFFFFF DUP3 AND SWAP1 POP SWAP2 SWAP1 POP JUMP JUMPDEST PUSH1 0x0 PUSH3 0x105 DUP3 PUSH3 0xD8 JUMP JUMPDEST SWAP1 POP SWAP2 SWAP1 POP JUMP JUMPDEST PUSH3 0x117 DUP2 PUSH3 0xF8 JUMP JUMPDEST DUP2 EQ PUSH3 0x123 JUMPI PUSH1 0x0 DUP1 REVERT JUMPDEST POP JUMP JUMPDEST PUSH1 0x0 DUP2 MLOAD SWAP1 POP PUSH3 0x137 DUP2 PUSH3 0x10C JUMP JUMPDEST SWAP3 SWAP2 POP POP JUMP JUMPDEST PUSH1 0x0 DUP1 REVERT JUMPDEST PUSH1 0x0 DUP1 REVERT JUMPDEST PUSH1 0x0 PUSH1 0x1F NOT PUSH1 0x1F DUP4 ADD AND SWAP1 POP SWAP2 SWAP1 POP JUMP JUMPDEST PUSH32 0x4E487B7100000000000000000000000000000000000000000000000000000000 PUSH1 0x0 MSTORE PUSH1 0x41 PUSH1 0x4 MSTORE PUSH1 0x24 PUSH1 0x0 REVERT JUMPDEST PUSH3 0x192 DUP3 PUSH3 0x147 JUMP JUMPDEST DUP2 ADD DUP2 DUP2 LT PUSH8 0xFFFFFFFFFFFFFFFF DUP3 GT OR ISZERO PUSH3 0x1B4 JUMPI PUSH3 0x1B3 PUSH3 0x158 JUMP JUMPDEST JUMPDEST DUP1 PUSH1 0x40 MSTORE POP POP POP JUMP JUMPDEST PUSH1 0x0 PUSH3 0x1C9 PUSH3 0xC4 JUMP JUMPDEST SWAP1 POP PUSH3 0x1D7 DUP3 DUP3 PUSH3 0x187 JUMP JUMPDEST SWAP2 SWAP1 POP JUMP JUMPDEST PUSH1 0x0 PUSH8 0xFFFFFFFFFFFFFFFF DUP3 GT ISZERO PUSH3 0x1FA JUMPI PUSH3 0x1F9 PUSH3 0x158 JUMP JUMPDEST JUMPDEST PUSH3 0x205 DUP3 PUSH3 0x147 JUMP JUMPDEST SWAP1 POP PUSH1 0x20 DUP2 ADD SWAP1 POP SWAP2 SWAP1 POP JUMP JUMPDEST PUSH1 0x0 JUMPDEST DUP4 DUP2 LT ISZERO PUSH3 0x232 JUMPI DUP1 DUP3 ADD MLOAD DUP2 DUP5 ADD MSTORE PUSH1 0x20 DUP2 ADD SWAP1 POP PUSH3 0x215 JUMP JUMPDEST PUSH1 0x0 DUP5 DUP5 ADD MSTORE POP POP POP POP JUMP JUMPDEST PUSH1 0x0 PUSH3 0x255 PUSH3 0x24F DUP5 PUSH3 0x1DC JUMP JUMPDEST PUSH3 0x1BD JUMP JUMPDEST SWAP1 POP DUP3 DUP2 MSTORE PUSH1 0x20 DUP2 ADD DUP5 DUP5 DUP5 ADD GT ISZERO PUSH3 0x274 JUMPI PUSH3 0x273 PUSH3 0x142 JUMP JUMPDEST JUMPDEST PUSH3 0x281 DUP5 DUP3 DUP6 PUSH3 0x212 JUMP JUMPDEST POP SWAP4 SWAP3 POP POP POP JUMP JUMPDEST PUSH1 0x0 DUP3 PUSH1 0x1F DUP4 ADD SLT PUSH3 0x2A1 JUMPI PUSH3 0x2A0 PUSH3 0x13D JUMP JUMPDEST JUMPDEST DUP2 MLOAD PUSH3 0x2B3 DUP5 DUP3 PUSH1 0x20 DUP7 ADD PUSH3 0x23E JUMP JUMPDEST SWAP2 POP POP SWAP3 SWAP2 POP POP JUMP JUMPDEST PUSH1 0x0 DUP1 PUSH1 0x40 DUP4 DUP6 SUB SLT ISZERO PUSH3 0x2D6 JUMPI PUSH3 0x2D5 PUSH3 0xCE JUMP JUMPDEST JUMPDEST PUSH1 0x0 PUSH3 0x2E6 DUP6 DUP3 DUP7 ADD PUSH3 0x126 JUMP JUMPDEST SWAP3 POP POP PUSH1 0x20 DUP4 ADD MLOAD PUSH8 0xFFFFFFFFFFFFFFFF DUP2 GT ISZERO PUSH3 0x30A JUMPI PUSH3 0x309 PUSH3 0xD3 JUMP JUMPDEST JUMPDEST PUSH3 0x318 DUP6 DUP3 DUP7 ADD PUSH3 0x289 JUMP JUMPDEST SWAP2 POP POP SWAP3 POP SWAP3 SWAP1 POP JUMP JUMPDEST PUSH1 0x0 DUP2 MLOAD SWAP1 POP SWAP2 SWAP1 POP JUMP JUMPDEST PUSH32 0x4E487B7100000000000000000000000000000000000000000000000000000000 PUSH1 0x0 MSTORE PUSH1 0x22 PUSH1 0x4 MSTORE PUSH1 0x24 PUSH1 0x0 REVERT JUMPDEST PUSH1 0x0 PUSH1 0x2 DUP3 DIV SWAP1 POP PUSH1 0x1 DUP3 AND DUP1 PUSH3 0x375 JUMPI PUSH1 0x7F DUP3 AND SWAP2 POP JUMPDEST PUSH1 0x20 DUP3 LT DUP2 SUB PUSH3 0x38B JUMPI PUSH3 0x38A PUSH3 0x32D JUMP JUMPDEST JUMPDEST POP SWAP2 SWAP1 POP JUMP JUMPDEST PUSH1 0x0 DUP2 SWAP1 POP DUP2 PUSH1 0x0 MSTORE PUSH1 0x20 PUSH1 0x0 KECCAK256 SWAP1 POP SWAP2 SWAP1 POP JUMP JUMPDEST PUSH1 0x0 PUSH1 0x20 PUSH1 0x1F DUP4 ADD DIV SWAP1 POP SWAP2 SWAP1 POP JUMP JUMPDEST PUSH1 0x0 DUP3 DUP3 SHL SWAP1 POP SWAP3 SWAP2 POP POP JUMP JUMPDEST PUSH1 0x0 PUSH1 0x8 DUP4 MUL PUSH3 0x3F5 PUSH32 0xFFFFFFFFFFFFFFFFFFFFFFFFFFFFFFFFFFFFFFFFFFFFFFFFFFFFFFFFFFFFFFFF DUP3 PUSH3 0x3B6 JUMP JUMPDEST PUSH3 0x401 DUP7 DUP4 PUSH3 0x3B6 JUMP JUMPDEST SWAP6 POP DUP1 NOT DUP5 AND SWAP4 POP DUP1 DUP7 AND DUP5 OR SWAP3 POP POP POP SWAP4 SWAP3 POP POP POP JUMP JUMPDEST PUSH1 0x0 DUP2 SWAP1 POP SWAP2 SWAP1 POP JUMP JUMPDEST PUSH1 0x0 DUP2 SWAP1 POP SWAP2 SWAP1 POP JUMP JUMPDEST PUSH1 0x0 PUSH3 0x44E PUSH3 0x448 PUSH3 0x442 DUP5 PUSH3 0x419 JUMP JUMPDEST PUSH3 0x423 JUMP JUMPDEST PUSH3 0x419 JUMP JUMPDEST SWAP1 POP SWAP2 SWAP1 POP JUMP JUMPDEST PUSH1 0x0 DUP2 SWAP1 POP SWAP2 SWAP1 POP JUMP JUMPDEST PUSH3 0x46A DUP4 PUSH3 0x42D JUMP JUMPDEST PUSH3 0x482 PUSH3 0x479 DUP3 PUSH3 0x455 JUMP JUMPDEST DUP5 DUP5 SLOAD PUSH3 0x3C3 JUMP JUMPDEST DUP3 SSTORE POP POP POP POP JUMP JUMPDEST PUSH1 0x0 SWAP1 JUMP JUMPDEST PUSH3 0x499 PUSH3 0x48A JUMP JUMPDEST PUSH3 0x4A6 DUP2 DUP5 DUP5 PUSH3 0x45F JUMP JUMPDEST POP POP POP JUMP JUMPDEST JUMPDEST DUP2 DUP2 LT ISZERO PUSH3 0x4CE JUMPI PUSH3 0x4C2 PUSH1 0x0 DUP3 PUSH3 0x48F JUMP JUMPDEST PUSH1 0x1 DUP2 ADD SWAP1 POP PUSH3 0x4AC JUMP JUMPDEST POP POP JUMP JUMPDEST PUSH1 0x1F DUP3 GT ISZERO PUSH3 0x51D JUMPI PUSH3 0x4E7 DUP2 PUSH3 0x391 JUMP JUMPDEST PUSH3 0x4F2 DUP5 PUSH3 0x3A6 JUMP JUMPDEST DUP2 ADD PUSH1 0x20 DUP6 LT ISZERO PUSH3 0x502 JUMPI DUP2 SWAP1 POP JUMPDEST PUSH3 0x51A PUSH3 0x511 DUP6 PUSH3 0x3A6 JUMP JUMPDEST DUP4 ADD DUP3 PUSH3 0x4AB JUMP JUMPDEST POP POP JUMPDEST POP POP POP JUMP JUMPDEST PUSH1 0x0 DUP3 DUP3 SHR SWAP1 POP SWAP3 SWAP2 POP POP JUMP JUMPDEST PUSH1 0x0 PUSH3 0x542 PUSH1 0x0 NOT DUP5 PUSH1 0x8 MUL PUSH3 0x522 JUMP JUMPDEST NOT DUP1 DUP4 AND SWAP2 POP POP SWAP3 SWAP2 POP POP JUMP JUMPDEST PUSH1 0x0 PUSH3 0x55D DUP4 DUP4 PUSH3 0x52F JUMP JUMPDEST SWAP2 POP DUP3 PUSH1 0x2 MUL DUP3 OR SWAP1 POP SWAP3 SWAP2 POP POP JUMP JUMPDEST PUSH3 0x578 DUP3 PUSH3 0x322 JUMP JUMPDEST PUSH8 0xFFFFFFFFFFFFFFFF DUP2 GT ISZERO PUSH3 0x594 JUMPI PUSH3 0x593 PUSH3 0x158 JUMP JUMPDEST JUMPDEST PUSH3 0x5A0 DUP3 SLOAD PUSH3 0x35C JUMP JUMPDEST PUSH3 0x5AD DUP3 DUP3 DUP6 PUSH3 0x4D2 JUMP JUMPDEST PUSH1 0x0 PUSH1 0x20 SWAP1 POP PUSH1 0x1F DUP4 GT PUSH1 0x1 DUP2 EQ PUSH3 0x5E5 JUMPI PUSH1 0x0 DUP5 ISZERO PUSH3 0x5D0 JUMPI DUP3 DUP8 ADD MLOAD SWAP1 POP JUMPDEST PUSH3 0x5DC DUP6 DUP3 PUSH3 0x54F JUMP JUMPDEST DUP7 SSTORE POP PUSH3 0x64C JUMP JUMPDEST PUSH1 0x1F NOT DUP5 AND PUSH3 0x5F5 DUP7 PUSH3 0x391 JUMP JUMPDEST PUSH1 0x0 JUMPDEST DUP3 DUP2 LT ISZERO PUSH3 0x61F JUMPI DUP5 DUP10 ADD MLOAD DUP3 SSTORE PUSH1 0x1 DUP3 ADD SWAP2 POP PUSH1 0x20 DUP6 ADD SWAP5 POP PUSH1 0x20 DUP2 ADD SWAP1 POP PUSH3 0x5F8 JUMP JUMPDEST DUP7 DUP4 LT ISZERO PUSH3 0x63F JUMPI DUP5 DUP10 ADD MLOAD PUSH3 0x63B PUSH1 0x1F DUP10 AND DUP3 PUSH3 0x52F JUMP JUMPDEST DUP4 SSTORE POP JUMPDEST PUSH1 0x1 PUSH1 0x2 DUP9 MUL ADD DUP9 SSTORE POP POP POP JUMPDEST POP POP POP POP POP POP JUMP JUMPDEST PUSH2 0x31C DUP1 PUSH3 0x664 PUSH1 0x0 CODECOPY PUSH1 0x0 RETURN INVALID PUSH1 0x80 PUSH1 0x40 MSTORE CALLVALUE DUP1 ISZERO PUSH2 0x10 JUMPI PUSH1 0x0 DUP1 REVERT JUMPDEST POP PUSH1 0x4 CALLDATASIZE LT PUSH2 0x41 JUMPI PUSH1 0x0 CALLDATALOAD PUSH1 0xE0 SHR DUP1 PUSH4 0xAD9D052 EQ PUSH2 0x46 JUMPI DUP1 PUSH4 0x514FA676 EQ PUSH2 0x64 JUMPI DUP1 PUSH4 0x8DA5CB5B EQ PUSH2 0x82 JUMPI JUMPDEST PUSH1 0x0 DUP1 REVERT JUMPDEST PUSH2 0x4E PUSH2 0xA0 JUMP JUMPDEST PUSH1 0x40 MLOAD PUSH2 0x5B SWAP2 SWAP1 PUSH2 0x208 JUMP JUMPDEST PUSH1 0x40 MLOAD DUP1 SWAP2 SUB SWAP1 RETURN JUMPDEST PUSH2 0x6C PUSH2 0x12E JUMP JUMPDEST PUSH1 0x40 MLOAD PUSH2 0x79 SWAP2 SWAP1 PUSH2 0x26B JUMP JUMPDEST PUSH1 0x40 MLOAD DUP1 SWAP2 SUB SWAP1 RETURN JUMPDEST PUSH2 0x8A PUSH2 0x154 JUMP JUMPDEST PUSH1 0x40 MLOAD PUSH2 0x97 SWAP2 SWAP1 PUSH2 0x26B JUMP JUMPDEST PUSH1 0x40 MLOAD DUP1 SWAP2 SUB SWAP1 RETURN JUMPDEST PUSH1 0x2 DUP1 SLOAD PUSH2 0xAD SWAP1 PUSH2 0x2B5 JUMP JUMPDEST DUP1 PUSH1 0x1F ADD PUSH1 0x20 DUP1 SWAP2 DIV MUL PUSH1 0x20 ADD PUSH1 0x40 MLOAD SWAP1 DUP2 ADD PUSH1 0x40 MSTORE DUP1 SWAP3 SWAP2 SWAP1 DUP2 DUP2 MSTORE PUSH1 0x20 ADD DUP3 DUP1 SLOAD PUSH2 0xD9 SWAP1 PUSH2 0x2B5 JUMP JUMPDEST DUP1 ISZERO PUSH2 0x126 JUMPI DUP1 PUSH1 0x1F LT PUSH2 0xFB JUMPI PUSH2 0x100 DUP1 DUP4 SLOAD DIV MUL DUP4 MSTORE SWAP2 PUSH1 0x20 ADD SWAP2 PUSH2 0x126 JUMP JUMPDEST DUP3 ADD SWAP2 SWAP1 PUSH1 0x0 MSTORE PUSH1 0x20 PUSH1 0x0 KECCAK256 SWAP1 JUMPDEST DUP2 SLOAD DUP2 MSTORE SWAP1 PUSH1 0x1 ADD SWAP1 PUSH1 0x20 ADD DUP1 DUP4 GT PUSH2 0x109 JUMPI DUP3 SWAP1 SUB PUSH1 0x1F AND DUP3 ADD SWAP2 JUMPDEST POP POP POP POP POP DUP2 JUMP JUMPDEST PUSH1 0x1 PUSH1 0x0 SWAP1 SLOAD SWAP1 PUSH2 0x100 EXP SWAP1 DIV PUSH20 0xFFFFFFFFFFFFFFFFFFFFFFFFFFFFFFFFFFFFFFFF AND DUP2 JUMP JUMPDEST PUSH1 0x0 DUP1 SLOAD SWAP1 PUSH2 0x100 EXP SWAP1 DIV PUSH20 0xFFFFFFFFFFFFFFFFFFFFFFFFFFFFFFFFFFFFFFFF AND DUP2 JUMP JUMPDEST PUSH1 0x0 DUP2 MLOAD SWAP1 POP SWAP2 SWAP1 POP JUMP JUMPDEST PUSH1 0x0 DUP3 DUP3 MSTORE PUSH1 0x20 DUP3 ADD SWAP1 POP SWAP3 SWAP2 POP POP JUMP JUMPDEST PUSH1 0x0 JUMPDEST DUP4 DUP2 LT ISZERO PUSH2 0x1B2 JUMPI DUP1 DUP3 ADD MLOAD DUP2 DUP5 ADD MSTORE PUSH1 0x20 DUP2 ADD SWAP1 POP PUSH2 0x197 JUMP JUMPDEST PUSH1 0x0 DUP5 DUP5 ADD MSTORE POP POP POP POP JUMP JUMPDEST PUSH1 0x0 PUSH1 0x1F NOT PUSH1 0x1F DUP4 ADD AND SWAP1 POP SWAP2 SWAP1 POP JUMP JUMPDEST PUSH1 0x0 PUSH2 0x1DA DUP3 PUSH2 0x178 JUMP JUMPDEST PUSH2 0x1E4 DUP2 DUP6 PUSH2 0x183 JUMP JUMPDEST SWAP4 POP PUSH2 0x1F4 DUP2 DUP6 PUSH1 0x20 DUP7 ADD PUSH2 0x194 JUMP JUMPDEST PUSH2 0x1FD DUP2 PUSH2 0x1BE JUMP JUMPDEST DUP5 ADD SWAP2 POP POP SWAP3 SWAP2 POP POP JUMP JUMPDEST PUSH1 0x0 PUSH1 0x20 DUP3 ADD SWAP1 POP DUP2 DUP2 SUB PUSH1 0x0 DUP4 ADD MSTORE PUSH2 0x222 DUP2 DUP5 PUSH2 0x1CF JUMP JUMPDEST SWAP1 POP SWAP3 SWAP2 POP POP JUMP JUMPDEST PUSH1 0x0 PUSH20 0xFFFFFFFFFFFFFFFFFFFFFFFFFFFFFFFFFFFFFFFF DUP3 AND SWAP1 POP SWAP2 SWAP1 POP JUMP JUMPDEST PUSH1 0x0 PUSH2 0x255 DUP3 PUSH2 0x22A JUMP JUMPDEST SWAP1 POP SWAP2 SWAP1 POP JUMP JUMPDEST PUSH2 0x265 DUP2 PUSH2 0x24A JUMP JUMPDEST DUP3 MSTORE POP POP JUMP JUMPDEST PUSH1 0x0 PUSH1 0x20 DUP3 ADD SWAP1 POP PUSH2 0x280 PUSH1 0x0 DUP4 ADD DUP5 PUSH2 0x25C JUMP JUMPDEST SWAP3 SWAP2 POP POP JUMP JUMPDEST PUSH32 0x4E487B7100000000000000000000000000000000000000000000000000000000 PUSH1 0x0 MSTORE PUSH1 0x22 PUSH1 0x4 MSTORE PUSH1 0x24 PUSH1 0x0 REVERT JUMPDEST PUSH1 0x0 PUSH1 0x2 DUP3 DIV SWAP1 POP PUSH1 0x1 DUP3 AND DUP1 PUSH2 0x2CD JUMPI PUSH1 0x7F DUP3 AND SWAP2 POP JUMPDEST PUSH1 0x20 DUP3 LT DUP2 SUB PUSH2 0x2E0 JUMPI PUSH2 0x2DF PUSH2 0x286 JUMP JUMPDEST JUMPDEST POP SWAP2 SWAP1 POP JUMP INVALID LOG2 PUSH5 0x6970667358 0x22 SLT KECCAK256 STOP RETURN 0xE4 0xE6 SWAP13 0xA7 0xC4 PUSH10 0xF734A1213CCB3C5D0630 LOG3 MUL 0xDD PUSH2 0xD73 SDIV JUMPI 0xAF NUMBER 0xE0 SWAP7 0xD4 RETURNDATASIZE PUSH5 0x736F6C6343 STOP ADDMOD GT STOP CALLER "},"methodIdentifiers":{"carAddr()":"514fa676","model()":"0ad9d052","owner()":"8da5cb5b"}}}}}