{"contracts/solidity-by-example/Visibility.sol":{"Base":{"abi":[{"inputs":[],"name":"externalFunction","outputs":[{"internalType":"string","name":"","type":"string"}],"stateMutability":"pure","type":"function"},{"inputs":[],"name":"publicFunc","outputs":[{"internalType":"string","name":"","type":"string"}],"stateMutability":"pure","type":"function"}],"evm":{"bytecode":{"linkReferences":{},"object":"608060405234801561001057600080fd5b506101d9806100206000396000f3fe608060405234801561001057600080fd5b50600436106100365760003560e01c80633a32b5491461003b5780634b73383f14610059575b600080fd5b610043610077565b6040516100509190610181565b60405180910390f35b6100616100b4565b60405161006e9190610181565b60405180910390f35b60606040518060400160405280601081526020017f507269766174652046756e6374696f6e00000000000000000000000000000000815250905090565b60606040518060400160405280600f81526020017f5075626c69632046756e6374696f6e0000000000000000000000000000000000815250905090565b600081519050919050565b600082825260208201905092915050565b60005b8381101561012b578082015181840152602081019050610110565b60008484015250505050565b6000601f19601f8301169050919050565b6000610153826100f1565b61015d81856100fc565b935061016d81856020860161010d565b61017681610137565b840191505092915050565b6000602082019050818103600083015261019b8184610148565b90509291505056fea2646970667358221220133366660aeebc1c9aecbf02127090a248d5941564683e837ff1764a44075b8064736f6c63430008110033","opcodes":"PUSH1 0x80 PUSH1 0x40 MSTORE CALLVALUE DUP1 ISZERO PUSH2 0x10 JUMPI PUSH1 0x0 DUP1 REVERT JUMPDEST POP PUSH2 0x1D9 DUP1 PUSH2 0x20 PUSH1 0x0 CODECOPY PUSH1 0x0 RETURN INVALID PUSH1 0x80 PUSH1 0x40 MSTORE CALLVALUE DUP1 ISZERO PUSH2 0x10 JUMPI PUSH1 0x0 DUP1 REVERT JUMPDEST POP PUSH1 0x4 CALLDATASIZE LT PUSH2 0x36 JUMPI PUSH1 0x0 CALLDATALOAD PUSH1 0xE0 SHR DUP1 PUSH4 0x3A32B549 EQ PUSH2 0x3B JUMPI DUP1 PUSH4 0x4B73383F EQ PUSH2 0x59 JUMPI JUMPDEST PUSH1 0x0 DUP1 REVERT JUMPDEST PUSH2 0x43 PUSH2 0x77 JUMP JUMPDEST PUSH1 0x40 MLOAD PUSH2 0x50 SWAP2 SWAP1 PUSH2 0x181 JUMP JUMPDEST PUSH1 0x40 MLOAD DUP1 SWAP2 SUB SWAP1 RETURN JUMPDEST PUSH2 0x61 PUSH2 0xB4 JUMP JUMPDEST PUSH1 0x40 MLOAD PUSH2 0x6E SWAP2 SWAP1 PUSH2 0x181 JUMP JUMPDEST PUSH1 0x40 MLOAD DUP1 SWAP2 SUB SWAP1 RETURN JUMPDEST PUSH1 0x60 PUSH1 0x40 MLOAD DUP1 PUSH1 0x40 ADD PUSH1 0x40 MSTORE DUP1 PUSH1 0x10 DUP2 MSTORE PUSH1 0x20 ADD PUSH32 0x507269766174652046756E6374696F6E00000000000000000000000000000000 DUP2 MSTORE POP SWAP1 POP SWAP1 JUMP JUMPDEST PUSH1 0x60 PUSH1 0x40 MLOAD DUP1 PUSH1 0x40 ADD PUSH1 0x40 MSTORE DUP1 PUSH1 0xF DUP2 MSTORE PUSH1 0x20 ADD PUSH32 0x5075626C69632046756E6374696F6E0000000000000000000000000000000000 DUP2 MSTORE POP SWAP1 POP SWAP1 JUMP JUMPDEST PUSH1 0x0 DUP2 MLOAD SWAP1 POP SWAP2 SWAP1 POP JUMP JUMPDEST PUSH1 0x0 DUP3 DUP3 MSTORE PUSH1 0x20 DUP3 ADD SWAP1 POP SWAP3 SWAP2 POP POP JUMP JUMPDEST PUSH1 0x0 JUMPDEST DUP4 DUP2 LT ISZERO PUSH2 0x12B JUMPI DUP1 DUP3 ADD MLOAD DUP2 DUP5 ADD MSTORE PUSH1 0x20 DUP2 ADD SWAP1 POP PUSH2 0x110 JUMP JUMPDEST PUSH1 0x0 DUP5 DUP5 ADD MSTORE POP POP POP POP JUMP JUMPDEST PUSH1 0x0 PUSH1 0x1F NOT PUSH1 0x1F DUP4 ADD AND SWAP1 POP SWAP2 SWAP1 POP JUMP JUMPDEST PUSH1 0x0 PUSH2 0x153 DUP3 PUSH2 0xF1 JUMP JUMPDEST PUSH2 0x15D DUP2 DUP6 PUSH2 0xFC JUMP JUMPDEST SWAP4 POP PUSH2 0x16D DUP2 DUP6 PUSH1 0x20 DUP7 ADD PUSH2 0x10D JUMP JUMPDEST PUSH2 0x176 DUP2 PUSH2 0x137 JUMP JUMPDEST DUP5 ADD SWAP2 POP POP SWAP3 SWAP2 POP POP JUMP JUMPDEST PUSH1 0x0 PUSH1 0x20 DUP3 ADD SWAP1 POP DUP2 DUP2 SUB PUSH1 0x0 DUP4 ADD MSTORE PUSH2 0x19B DUP2 DUP5 PUSH2 0x148 JUMP JUMPDEST SWAP1 POP SWAP3 SWAP2 POP POP JUMP INVALID LOG2 PUSH5 0x6970667358 0x22 SLT KECCAK256 SGT CALLER PUSH7 0x660AEEBC1C9AEC 0xBF MUL SLT PUSH17 0x90A248D5941564683E837FF1764A44075B DUP1 PUSH5 0x736F6C6343 STOP ADDMOD GT STOP CALLER "},"methodIdentifiers":{"externalFunction()":"3a32b549","publicFunc()":"4b73383f"}}}}}