{
  "_format": "hh-sol-artifact-1",
  "contractName": "LocationTracker",
  "sourceName": "contracts/solidity-by-example/LocationTracker.sol",
  "abi": [
    {
      "inputs": [
        {
          "internalType": "uint256",
          "name": "_locationId",
          "type": "uint256"
        },
        {
          "internalType": "string",
          "name": "_name",
          "type": "string"
        },
        {
          "internalType": "string",
          "name": "_secret",
          "type": "string"
        }
      ],
      "name": "addLocation",
      "outputs": [],
      "stateMutability": "nonpayable",
      "type": "function"
    },
    {
      "inputs": [
        {
          "internalType": "uint256",
          "name": "trailNo",
          "type": "uint256"
        }
      ],
      "name": "getLocation",
      "outputs": [
        {
          "internalType": "string",
          "name": "",
          "type": "string"
        },
        {
          "internalType": "uint256",
          "name": "",
          "type": "uint256"
        },
        {
          "internalType": "uint256",
          "name": "",
          "type": "uint256"
        },
        {
          "internalType": "uint256",
          "name": "",
          "type": "uint256"
        },
        {
          "internalType": "string",
          "name": "",
          "type": "string"
        }
      ],
      "stateMutability": "view",
      "type": "function"
    },
    {
      "inputs": [],
      "name": "getTrailCount",
      "outputs": [
        {
          "internalType": "uint256",
          "name": "",
          "type": "uint256"
        }
      ],
      "stateMutability": "view",
      "type": "function"
    }
  ],
  "bytecode": "0x608060405234801561001057600080fd5b50610a74806100206000396000f3fe608060405234801561001057600080fd5b50600436106100415760003560e01c806373f0101c146100465780637f7b139314610064578063d44c402814610098575b600080fd5b61004e6100b4565b60405161005b9190610463565b60405180910390f35b61007e600480360381019061007991906104b4565b6100ce565b60405161008f959493929190610571565b60405180910390f35b6100b260048036038101906100ad9190610637565b610267565b005b6000600160009054906101000a900460ff1660ff16905090565b60606000806000606060008060008881526020019081526020016000206040518060a0016040529081600082018054610106906106fb565b80601f0160208091040260200160405190810160405280929190818152602001828054610132906106fb565b801561017f5780601f106101545761010080835404028352916020019161017f565b820191906000526020600020905b81548152906001019060200180831161016257829003601f168201915b505050505081526020016001820154815260200160028201548152602001600382015481526020016004820180546101b6906106fb565b80601f01602080910402602001604051908101604052809291908181526020018280546101e2906106fb565b801561022f5780601f106102045761010080835404028352916020019161022f565b820191906000526020600020905b81548152906001019060200180831161021257829003601f168201915b505050505081525050905080600001518160200151826040015183606001518460800151955095509550955095505091939590929450565b61026f61041b565b84848080601f016020809104026020016040519081016040528093929190818152602001838380828437600081840152601f19601f8201169050808301925050505050505081600001819052508581602001818152505082828080601f016020809104026020016040519081016040528093929190818152602001838380828437600081840152601f19601f820116905080830192505050505050508160800181905250428160600181815250506000600160009054906101000a900460ff1660ff161461036957600080600160009054906101000a900460ff1660ff168152602001908152602001600020600101548160400181815250505b80600080600160009054906101000a900460ff1660ff16815260200190815260200160002060008201518160000190816103a39190610907565b5060208201518160010155604082015181600201556060820151816003015560808201518160040190816103d79190610907565b509050506001600081819054906101000a900460ff16809291906103fa90610a15565b91906101000a81548160ff021916908360ff16021790555050505050505050565b6040518060a0016040528060608152602001600081526020016000815260200160008152602001606081525090565b6000819050919050565b61045d8161044a565b82525050565b60006020820190506104786000830184610454565b92915050565b600080fd5b600080fd5b6104918161044a565b811461049c57600080fd5b50565b6000813590506104ae81610488565b92915050565b6000602082840312156104ca576104c961047e565b5b60006104d88482850161049f565b91505092915050565b600081519050919050565b600082825260208201905092915050565b60005b8381101561051b578082015181840152602081019050610500565b60008484015250505050565b6000601f19601f8301169050919050565b6000610543826104e1565b61054d81856104ec565b935061055d8185602086016104fd565b61056681610527565b840191505092915050565b600060a082019050818103600083015261058b8188610538565b905061059a6020830187610454565b6105a76040830186610454565b6105b46060830185610454565b81810360808301526105c68184610538565b90509695505050505050565b600080fd5b600080fd5b600080fd5b60008083601f8401126105f7576105f66105d2565b5b8235905067ffffffffffffffff811115610614576106136105d7565b5b6020830191508360018202830111156106305761062f6105dc565b5b9250929050565b6000806000806000606086880312156106535761065261047e565b5b60006106618882890161049f565b955050602086013567ffffffffffffffff81111561068257610681610483565b5b61068e888289016105e1565b9450945050604086013567ffffffffffffffff8111156106b1576106b0610483565b5b6106bd888289016105e1565b92509250509295509295909350565b7f4e487b7100000000000000000000000000000000000000000000000000000000600052602260045260246000fd5b6000600282049050600182168061071357607f821691505b602082108103610726576107256106cc565b5b50919050565b7f4e487b7100000000000000000000000000000000000000000000000000000000600052604160045260246000fd5b60008190508160005260206000209050919050565b60006020601f8301049050919050565b600082821b905092915050565b6000600883026107bd7fffffffffffffffffffffffffffffffffffffffffffffffffffffffffffffffff82610780565b6107c78683610780565b95508019841693508086168417925050509392505050565b6000819050919050565b60006108046107ff6107fa8461044a565b6107df565b61044a565b9050919050565b6000819050919050565b61081e836107e9565b61083261082a8261080b565b84845461078d565b825550505050565b600090565b61084761083a565b610852818484610815565b505050565b5b818110156108765761086b60008261083f565b600181019050610858565b5050565b601f8211156108bb5761088c8161075b565b61089584610770565b810160208510156108a4578190505b6108b86108b085610770565b830182610857565b50505b505050565b600082821c905092915050565b60006108de600019846008026108c0565b1980831691505092915050565b60006108f783836108cd565b9150826002028217905092915050565b610910826104e1565b67ffffffffffffffff8111156109295761092861072c565b5b61093382546106fb565b61093e82828561087a565b600060209050601f831160018114610971576000841561095f578287015190505b61096985826108eb565b8655506109d1565b601f19841661097f8661075b565b60005b828110156109a757848901518255600182019150602085019450602081019050610982565b868310156109c457848901516109c0601f8916826108cd565b8355505b6001600288020188555050505b505050505050565b7f4e487b7100000000000000000000000000000000000000000000000000000000600052601160045260246000fd5b600060ff82169050919050565b6000610a2082610a08565b915060ff8203610a3357610a326109d9565b5b60018201905091905056fea26469706673582212205051c72a742109fe6cafe82759e82100701a87c265d096fb941055285bfabe8764736f6c63430008110033",
  "linkReferences": {},
  "deployedLinkReferences": {}
}