{
  "_format": "hh-sol-artifact-1",
  "contractName": "Ballot",
  "sourceName": "contracts/solidity-by-example/Ballot.sol",
  "abi": [
    {
      "inputs": [
        {
          "internalType": "bytes32[]",
          "name": "proposalNames",
          "type": "bytes32[]"
        }
      ],
      "stateMutability": "nonpayable",
      "type": "constructor"
    },
    {
      "inputs": [
        {
          "internalType": "address",
          "name": "_voter",
          "type": "address"
        }
      ],
      "name": "addVoter",
      "outputs": [],
      "stateMutability": "nonpayable",
      "type": "function"
    },
    {
      "inputs": [
        {
          "internalType": "address",
          "name": "_to",
          "type": "address"
        }
      ],
      "name": "delegate",
      "outputs": [],
      "stateMutability": "nonpayable",
      "type": "function"
    },
    {
      "inputs": [
        {
          "internalType": "address",
          "name": "voter",
          "type": "address"
        }
      ],
      "name": "giveRightToVote",
      "outputs": [],
      "stateMutability": "nonpayable",
      "type": "function"
    },
    {
      "inputs": [
        {
          "internalType": "uint256",
          "name": "_proposal",
          "type": "uint256"
        }
      ],
      "name": "vote",
      "outputs": [],
      "stateMutability": "nonpayable",
      "type": "function"
    },
    {
      "inputs": [
        {
          "internalType": "address",
          "name": "",
          "type": "address"
        }
      ],
      "name": "voters",
      "outputs": [
        {
          "internalType": "address",
          "name": "self",
          "type": "address"
        },
        {
          "internalType": "uint256",
          "name": "weight",
          "type": "uint256"
        },
        {
          "internalType": "bool",
          "name": "voted",
          "type": "bool"
        },
        {
          "internalType": "address",
          "name": "delegate",
          "type": "address"
        },
        {
          "internalType": "uint256",
          "name": "vote",
          "type": "uint256"
        }
      ],
      "stateMutability": "view",
      "type": "function"
    },
    {
      "inputs": [],
      "name": "winnerName",
      "outputs": [
        {
          "internalType": "bytes32",
          "name": "winnerName_",
          "type": "bytes32"
        }
      ],
      "stateMutability": "view",
      "type": "function"
    },
    {
      "inputs": [],
      "name": "winningProposal",
      "outputs": [
        {
          "internalType": "uint256",
          "name": "winningProposalIndex_",
          "type": "uint256"
        }
      ],
      "stateMutability": "view",
      "type": "function"
    }
  ],
  "bytecode": "0x60806040523480156200001157600080fd5b506040516200155c3803806200155c8339818101604052810190620000379190620002db565b33600260006101000a81548173ffffffffffffffffffffffffffffffffffffffff021916908373ffffffffffffffffffffffffffffffffffffffff16021790555060005b81518110156200010f5760016040518060400160405280848481518110620000a857620000a76200032c565b5b6020026020010151815260200160008152509080600181540180825580915050600190039060005260206000209060020201600090919091909150600082015181600001556020820151816001015550508080620001069062000394565b9150506200007b565b5050620003e1565b6000604051905090565b600080fd5b600080fd5b600080fd5b6000601f19601f8301169050919050565b7f4e487b7100000000000000000000000000000000000000000000000000000000600052604160045260246000fd5b6200017b8262000130565b810181811067ffffffffffffffff821117156200019d576200019c62000141565b5b80604052505050565b6000620001b262000117565b9050620001c0828262000170565b919050565b600067ffffffffffffffff821115620001e357620001e262000141565b5b602082029050602081019050919050565b600080fd5b6000819050919050565b6200020e81620001f9565b81146200021a57600080fd5b50565b6000815190506200022e8162000203565b92915050565b60006200024b6200024584620001c5565b620001a6565b90508083825260208201905060208402830185811115620002715762000270620001f4565b5b835b818110156200029e57806200028988826200021d565b84526020840193505060208101905062000273565b5050509392505050565b600082601f830112620002c057620002bf6200012b565b5b8151620002d284826020860162000234565b91505092915050565b600060208284031215620002f457620002f362000121565b5b600082015167ffffffffffffffff81111562000315576200031462000126565b5b6200032384828501620002a8565b91505092915050565b7f4e487b7100000000000000000000000000000000000000000000000000000000600052603260045260246000fd5b7f4e487b7100000000000000000000000000000000000000000000000000000000600052601160045260246000fd5b6000819050919050565b6000620003a1826200038a565b91507fffffffffffffffffffffffffffffffffffffffffffffffffffffffffffffffff8203620003d657620003d56200035b565b5b600182019050919050565b61116b80620003f16000396000f3fe608060405234801561001057600080fd5b506004361061007d5760003560e01c80639e7b8d611161005b5780639e7b8d61146100d8578063a3ec138d146100f4578063e2ba53f014610128578063f4ab9adf146101465761007d565b80630121b93f146100825780635c19a95c1461009e578063609ff1bd146100ba575b600080fd5b61009c60048036038101906100979190610a99565b610162565b005b6100b860048036038101906100b39190610b24565b6102b1565b005b6100c2610504565b6040516100cf9190610b60565b60405180910390f35b6100f260048036038101906100ed9190610b24565b61058c565b005b61010e60048036038101906101099190610b24565b610779565b60405161011f959493929190610ba5565b60405180910390f35b6101306107fc565b60405161013d9190610c11565b60405180910390f35b610160600480360381019061015b9190610b24565b610830565b005b60008060003373ffffffffffffffffffffffffffffffffffffffff1673ffffffffffffffffffffffffffffffffffffffff168152602001908152602001600020905060008160010154036101eb576040517f08c379a00000000000000000000000000000000000000000000000000000000081526004016101e290610caf565b60405180910390fd5b8060020160009054906101000a900460ff161561023d576040517f08c379a000000000000000000000000000000000000000000000000000000000815260040161023490610d1b565b60405180910390fd5b60018160020160006101000a81548160ff02191690831515021790555081816003018190555080600101546001838154811061027c5761027b610d3b565b5b9060005260206000209060020201600101600082825461029c9190610d99565b92505081905550600081600101819055505050565b60008060003373ffffffffffffffffffffffffffffffffffffffff1673ffffffffffffffffffffffffffffffffffffffff1681526020019081526020016000209050600081600101540361033a576040517f08c379a000000000000000000000000000000000000000000000000000000000815260040161033190610e19565b60405180910390fd5b8060020160009054906101000a900460ff161561038c576040517f08c379a000000000000000000000000000000000000000000000000000000000815260040161038390610d1b565b60405180910390fd5b60008060008473ffffffffffffffffffffffffffffffffffffffff1673ffffffffffffffffffffffffffffffffffffffff16815260200190815260200160002090506001816001015411610415576040517f08c379a000000000000000000000000000000000000000000000000000000000815260040161040c90610eab565b60405180910390fd5b60018260020160006101000a81548160ff021916908315150217905550828260020160016101000a81548173ffffffffffffffffffffffffffffffffffffffff021916908373ffffffffffffffffffffffffffffffffffffffff1602179055508060020160009054906101000a900460ff16156104d557816001015460018260030154815481106104a9576104a8610d3b565b5b906000526020600020906002020160010160008282546104c99190610d99565b925050819055506104ff565b81600101548160010160008282546104ed9190610d99565b92505081905550600082600101819055505b505050565b6000806000905060005b6001805490508110156105875781600182815481106105305761052f610d3b565b5b9060005260206000209060020201600101541115610574576001818154811061055c5761055b610d3b565b5b90600052602060002090600202016001015491508092505b808061057f90610ecb565b91505061050e565b505090565b600260009054906101000a900473ffffffffffffffffffffffffffffffffffffffff1673ffffffffffffffffffffffffffffffffffffffff163373ffffffffffffffffffffffffffffffffffffffff161461061c576040517f08c379a000000000000000000000000000000000000000000000000000000000815260040161061390610f85565b60405180910390fd5b6000808273ffffffffffffffffffffffffffffffffffffffff1673ffffffffffffffffffffffffffffffffffffffff16815260200190815260200160002060020160009054906101000a900460ff16156106ab576040517f08c379a00000000000000000000000000000000000000000000000000000000081526004016106a290611017565b60405180910390fd5b60008060008373ffffffffffffffffffffffffffffffffffffffff1673ffffffffffffffffffffffffffffffffffffffff168152602001908152602001600020600101541461072f576040517f08c379a0000000000000000000000000000000000000000000000000000000008152600401610726906110a9565b60405180910390fd5b60016000808373ffffffffffffffffffffffffffffffffffffffff1673ffffffffffffffffffffffffffffffffffffffff1681526020019081526020016000206001018190555050565b60006020528060005260406000206000915090508060000160009054906101000a900473ffffffffffffffffffffffffffffffffffffffff16908060010154908060020160009054906101000a900460ff16908060020160019054906101000a900473ffffffffffffffffffffffffffffffffffffffff16908060030154905085565b60006001610808610504565b8154811061081957610818610d3b565b5b906000526020600020906002020160000154905090565b8073ffffffffffffffffffffffffffffffffffffffff166000808373ffffffffffffffffffffffffffffffffffffffff1673ffffffffffffffffffffffffffffffffffffffff16815260200190815260200160002060000160009054906101000a900473ffffffffffffffffffffffffffffffffffffffff1673ffffffffffffffffffffffffffffffffffffffff16036108ff576040517f08c379a00000000000000000000000000000000000000000000000000000000081526004016108f690611115565b60405180910390fd5b6040518060a001604052808273ffffffffffffffffffffffffffffffffffffffff168152602001600081526020016000151581526020013073ffffffffffffffffffffffffffffffffffffffff1681526020016127108152506000808373ffffffffffffffffffffffffffffffffffffffff1673ffffffffffffffffffffffffffffffffffffffff16815260200190815260200160002060008201518160000160006101000a81548173ffffffffffffffffffffffffffffffffffffffff021916908373ffffffffffffffffffffffffffffffffffffffff1602179055506020820151816001015560408201518160020160006101000a81548160ff02191690831515021790555060608201518160020160016101000a81548173ffffffffffffffffffffffffffffffffffffffff021916908373ffffffffffffffffffffffffffffffffffffffff1602179055506080820151816003015590505050565b600080fd5b6000819050919050565b610a7681610a63565b8114610a8157600080fd5b50565b600081359050610a9381610a6d565b92915050565b600060208284031215610aaf57610aae610a5e565b5b6000610abd84828501610a84565b91505092915050565b600073ffffffffffffffffffffffffffffffffffffffff82169050919050565b6000610af182610ac6565b9050919050565b610b0181610ae6565b8114610b0c57600080fd5b50565b600081359050610b1e81610af8565b92915050565b600060208284031215610b3a57610b39610a5e565b5b6000610b4884828501610b0f565b91505092915050565b610b5a81610a63565b82525050565b6000602082019050610b756000830184610b51565b92915050565b610b8481610ae6565b82525050565b60008115159050919050565b610b9f81610b8a565b82525050565b600060a082019050610bba6000830188610b7b565b610bc76020830187610b51565b610bd46040830186610b96565b610be16060830185610b7b565b610bee6080830184610b51565b9695505050505050565b6000819050919050565b610c0b81610bf8565b82525050565b6000602082019050610c266000830184610c02565b92915050565b600082825260208201905092915050565b7f566f74657220686173204e6f20726967687420746f20566f7465204f5220416c60008201527f726561647920566f746564210000000000000000000000000000000000000000602082015250565b6000610c99602c83610c2c565b9150610ca482610c3d565b604082019050919050565b60006020820190508181036000830152610cc881610c8c565b9050919050565b7f566f7465722068617320616c726561647920766f746564000000000000000000600082015250565b6000610d05601783610c2c565b9150610d1082610ccf565b602082019050919050565b60006020820190508181036000830152610d3481610cf8565b9050919050565b7f4e487b7100000000000000000000000000000000000000000000000000000000600052603260045260246000fd5b7f4e487b7100000000000000000000000000000000000000000000000000000000600052601160045260246000fd5b6000610da482610a63565b9150610daf83610a63565b9250828201905080821115610dc757610dc6610d6a565b5b92915050565b7f566f74657220686173206e6f20726967687420746f20566f7465000000000000600082015250565b6000610e03601a83610c2c565b9150610e0e82610dcd565b602082019050919050565b60006020820190508181036000830152610e3281610df6565b9050919050565b7f43616e6e6f742064656c656761746520746f20616e6f7468657220766f74657260008201527f284163636f756e7429207468617420686173206e6f2077656967687400000000602082015250565b6000610e95603c83610c2c565b9150610ea082610e39565b604082019050919050565b60006020820190508181036000830152610ec481610e88565b9050919050565b6000610ed682610a63565b91507fffffffffffffffffffffffffffffffffffffffffffffffffffffffffffffffff8203610f0857610f07610d6a565b5b600182019050919050565b7f4f6e6c79204368616972706572736f6e2063616e2070726f7669646520766f7460008201527f696e672072696768747300000000000000000000000000000000000000000000602082015250565b6000610f6f602a83610c2c565b9150610f7a82610f13565b604082019050919050565b60006020820190508181036000830152610f9e81610f62565b9050919050565b7f52696768747320616c7265616479206578697374733b205468697320566f746560008201527f722068617320616c726561647920566f7465642e000000000000000000000000602082015250565b6000611001603483610c2c565b915061100c82610fa5565b604082019050919050565b6000602082019050818103600083015261103081610ff4565b9050919050565b7f5468697320766f74657220616c72656164792068617320726967687420746f2060008201527f766f746500000000000000000000000000000000000000000000000000000000602082015250565b6000611093602483610c2c565b915061109e82611037565b604082019050919050565b600060208201905081810360008301526110c281611086565b9050919050565b7f5468697320566f7465722068617320616c72656164792065786974732e000000600082015250565b60006110ff601d83610c2c565b915061110a826110c9565b602082019050919050565b6000602082019050818103600083015261112e816110f2565b905091905056fea264697066735822122066bf2d5420a682e03e1a1da39129af57ea521a9daf40939bade46620853d505b64736f6c63430008110033",
  "linkReferences": {},
  "deployedLinkReferences": {}
}