{
  "_format": "hh-sol-artifact-1",
  "contractName": "Caller",
  "sourceName": "contracts/solidity-by-example/Call.sol",
  "abi": [
    {
      "anonymous": false,
      "inputs": [
        {
          "indexed": false,
          "internalType": "bool",
          "name": "success",
          "type": "bool"
        },
        {
          "indexed": false,
          "internalType": "bytes",
          "name": "data",
          "type": "bytes"
        }
      ],
      "name": "Response",
      "type": "event"
    },
    {
      "inputs": [
        {
          "internalType": "address payable",
          "name": "_receiverAddr",
          "type": "address"
        }
      ],
      "name": "testCallThatDoesNotExist",
      "outputs": [],
      "stateMutability": "payable",
      "type": "function"
    },
    {
      "inputs": [
        {
          "internalType": "address payable",
          "name": "_receiverAddr",
          "type": "address"
        }
      ],
      "name": "testCallToFoo",
      "outputs": [],
      "stateMutability": "payable",
      "type": "function"
    }
  ],
  "bytecode": "0x608060405234801561001057600080fd5b506105a8806100206000396000f3fe6080604052600436106100295760003560e01c8063125c218d1461002e57806399b846ee1461004a575b600080fd5b6100486004803603810190610043919061033a565b610066565b005b610064600480360381019061005f919061033a565b610196565b005b6000808273ffffffffffffffffffffffffffffffffffffffff16346040516024016040516020818303038152906040527f1dcc85ae000000000000000000000000000000000000000000000000000000007bffffffffffffffffffffffffffffffffffffffffffffffffffffffff19166020820180517bffffffffffffffffffffffffffffffffffffffffffffffffffffffff838183161783525050505060405161011191906103d8565b60006040518083038185875af1925050503d806000811461014e576040519150601f19603f3d011682016040523d82523d6000602084013e610153565b606091505b50915091507f13848c3e38f8886f3f5d2ad9dff80d8092c2bbb8efd5b887a99c2c6cfc09ac2a8282604051610189929190610465565b60405180910390a1505050565b6000808273ffffffffffffffffffffffffffffffffffffffff163461c35090607b6040516024016101c79190610544565b6040516020818303038152906040527f24ccab8f000000000000000000000000000000000000000000000000000000007bffffffffffffffffffffffffffffffffffffffffffffffffffffffff19166020820180517bffffffffffffffffffffffffffffffffffffffffffffffffffffffff838183161783525050505060405161025191906103d8565b600060405180830381858888f193505050503d806000811461028f576040519150601f19603f3d011682016040523d82523d6000602084013e610294565b606091505b50915091507f13848c3e38f8886f3f5d2ad9dff80d8092c2bbb8efd5b887a99c2c6cfc09ac2a82826040516102ca929190610465565b60405180910390a1505050565b600080fd5b600073ffffffffffffffffffffffffffffffffffffffff82169050919050565b6000610307826102dc565b9050919050565b610317816102fc565b811461032257600080fd5b50565b6000813590506103348161030e565b92915050565b6000602082840312156103505761034f6102d7565b5b600061035e84828501610325565b91505092915050565b600081519050919050565b600081905092915050565b60005b8381101561039b578082015181840152602081019050610380565b60008484015250505050565b60006103b282610367565b6103bc8185610372565b93506103cc81856020860161037d565b80840191505092915050565b60006103e482846103a7565b915081905092915050565b60008115159050919050565b610404816103ef565b82525050565b600082825260208201905092915050565b6000601f19601f8301169050919050565b600061043782610367565b610441818561040a565b935061045181856020860161037d565b61045a8161041b565b840191505092915050565b600060408201905061047a60008301856103fb565b818103602083015261048c818461042c565b90509392505050565b600082825260208201905092915050565b7f63616c6c20666f6f000000000000000000000000000000000000000000000000600082015250565b60006104dc600883610495565b91506104e7826104a6565b602082019050919050565b6000819050919050565b600060ff82169050919050565b6000819050919050565b600061052e610529610524846104f2565b610509565b6104fc565b9050919050565b61053e81610513565b82525050565b6000604082019050818103600083015261055d816104cf565b905061056c6020830184610535565b9291505056fea264697066735822122081be78d7c702d8e1662db7afdd4b63f4e7cd520f8697b7f61feddc9649c41ff064736f6c63430008110033",
  "linkReferences": {},
  "deployedLinkReferences": {}
}