{
  "_format": "hh-sol-artifact-1",
  "contractName": "Receiver",
  "sourceName": "contracts/solidity-by-example/Call.sol",
  "abi": [
    {
      "anonymous": false,
      "inputs": [
        {
          "indexed": false,
          "internalType": "address",
          "name": "caller",
          "type": "address"
        },
        {
          "indexed": false,
          "internalType": "uint256",
          "name": "amount",
          "type": "uint256"
        },
        {
          "indexed": false,
          "internalType": "string",
          "name": "message",
          "type": "string"
        }
      ],
      "name": "Received",
      "type": "event"
    },
    {
      "stateMutability": "payable",
      "type": "fallback"
    },
    {
      "inputs": [
        {
          "internalType": "string",
          "name": "_message",
          "type": "string"
        },
        {
          "internalType": "uint256",
          "name": "_x",
          "type": "uint256"
        }
      ],
      "name": "foo",
      "outputs": [
        {
          "internalType": "uint256",
          "name": "",
          "type": "uint256"
        }
      ],
      "stateMutability": "payable",
      "type": "function"
    }
  ],
  "bytecode": "0x608060405234801561001057600080fd5b5061055c806100206000396000f3fe6080604052600436106100225760003560e01c806324ccab8f1461006057610023565b5b7f59e04c3f0d44b7caf6e8ef854b61d9a51cf1960d7a88ff6356cc5e946b4b5832336108fc6040516100569291906101cf565b60405180910390a1005b61007a60048036038101906100759190610391565b610090565b60405161008791906103fc565b60405180910390f35b60007f59e04c3f0d44b7caf6e8ef854b61d9a51cf1960d7a88ff6356cc5e946b4b58323334856040516100c593929190610485565b60405180910390a16001826100da91906104f2565b905092915050565b600073ffffffffffffffffffffffffffffffffffffffff82169050919050565b600061010d826100e2565b9050919050565b61011d81610102565b82525050565b6000819050919050565b6000819050919050565b6000819050919050565b600061015c61015761015284610123565b610137565b61012d565b9050919050565b61016c81610141565b82525050565b600082825260208201905092915050565b7f46616c6c6261636b2069732063616c6c65640000000000000000000000000000600082015250565b60006101b9601283610172565b91506101c482610183565b602082019050919050565b60006060820190506101e46000830185610114565b6101f16020830184610163565b8181036040830152610202816101ac565b90509392505050565b6000604051905090565b600080fd5b600080fd5b600080fd5b600080fd5b6000601f19601f8301169050919050565b7f4e487b7100000000000000000000000000000000000000000000000000000000600052604160045260246000fd5b61027282610229565b810181811067ffffffffffffffff821117156102915761029061023a565b5b80604052505050565b60006102a461020b565b90506102b08282610269565b919050565b600067ffffffffffffffff8211156102d0576102cf61023a565b5b6102d982610229565b9050602081019050919050565b82818337600083830152505050565b6000610308610303846102b5565b61029a565b90508281526020810184848401111561032457610323610224565b5b61032f8482856102e6565b509392505050565b600082601f83011261034c5761034b61021f565b5b813561035c8482602086016102f5565b91505092915050565b61036e8161012d565b811461037957600080fd5b50565b60008135905061038b81610365565b92915050565b600080604083850312156103a8576103a7610215565b5b600083013567ffffffffffffffff8111156103c6576103c561021a565b5b6103d285828601610337565b92505060206103e38582860161037c565b9150509250929050565b6103f68161012d565b82525050565b600060208201905061041160008301846103ed565b92915050565b600081519050919050565b60005b83811015610440578082015181840152602081019050610425565b60008484015250505050565b600061045782610417565b6104618185610172565b9350610471818560208601610422565b61047a81610229565b840191505092915050565b600060608201905061049a6000830186610114565b6104a760208301856103ed565b81810360408301526104b9818461044c565b9050949350505050565b7f4e487b7100000000000000000000000000000000000000000000000000000000600052601160045260246000fd5b60006104fd8261012d565b91506105088361012d565b92508282019050808211156105205761051f6104c3565b5b9291505056fea2646970667358221220b33b48b626420113f8f308211c746018c4e430056b4e4d32b35e3bf13f35661564736f6c63430008110033",
  "linkReferences": {},
  "deployedLinkReferences": {}
}