{
  "_format": "hh-sol-artifact-1",
  "contractName": "CarFactory",
  "sourceName": "contracts/solidity-by-example/CarFactory.sol",
  "abi": [
    {
      "inputs": [
        {
          "internalType": "address",
          "name": "_owner",
          "type": "address"
        },
        {
          "internalType": "string",
          "name": "_model",
          "type": "string"
        }
      ],
      "name": "carWithValue",
      "outputs": [],
      "stateMutability": "payable",
      "type": "function"
    },
    {
      "inputs": [
        {
          "internalType": "uint256",
          "name": "",
          "type": "uint256"
        }
      ],
      "name": "cars",
      "outputs": [
        {
          "internalType": "contract Car",
          "name": "",
          "type": "address"
        }
      ],
      "stateMutability": "view",
      "type": "function"
    },
    {
      "inputs": [
        {
          "internalType": "uint256",
          "name": "_index",
          "type": "uint256"
        }
      ],
      "name": "getCar",
      "outputs": [
        {
          "internalType": "address",
          "name": "owner",
          "type": "address"
        },
        {
          "internalType": "string",
          "name": "model",
          "type": "string"
        },
        {
          "internalType": "address",
          "name": "carAddr",
          "type": "address"
        },
        {
          "internalType": "uint256",
          "name": "balance",
          "type": "uint256"
        }
      ],
      "stateMutability": "view",
      "type": "function"
    }
  ],
  "bytecode": "0x608060405234801561001057600080fd5b5061133b806100206000396000f3fe608060405260043610620000385760003560e01c80632be43142146200003d5780635e8be190146200005d578063f7746e3614620000a4575b600080fd5b6200005b600480360381019062000055919062000498565b620000e8565b005b3480156200006a57600080fd5b506200008960048036038101906200008391906200053d565b62000194565b6040516200009b94939291906200062b565b60405180910390f35b348015620000b157600080fd5b50620000d06004803603810190620000ca91906200053d565b62000363565b604051620000df9190620006ea565b60405180910390f35b600034848484604051620000fc90620003a3565b6200010a9392919062000749565b6040518091039082f090508015801562000128573d6000803e3d6000fd5b5090506000819080600181540180825580915050600190039060005260206000200160009091909190916101000a81548173ffffffffffffffffffffffffffffffffffffffff021916908373ffffffffffffffffffffffffffffffffffffffff16021790555050505050565b600060606000806000808681548110620001b357620001b26200077f565b5b9060005260206000200160009054906101000a900473ffffffffffffffffffffffffffffffffffffffff1690508073ffffffffffffffffffffffffffffffffffffffff16638da5cb5b6040518163ffffffff1660e01b8152600401602060405180830381865afa1580156200022c573d6000803e3d6000fd5b505050506040513d601f19601f82011682018060405250810190620002529190620007c5565b8173ffffffffffffffffffffffffffffffffffffffff16630ad9d0526040518163ffffffff1660e01b8152600401600060405180830381865afa1580156200029e573d6000803e3d6000fd5b505050506040513d6000823e3d601f19601f82011682018060405250810190620002c9919062000934565b8273ffffffffffffffffffffffffffffffffffffffff1663514fa6766040518163ffffffff1660e01b8152600401602060405180830381865afa15801562000315573d6000803e3d6000fd5b505050506040513d601f19601f820116820180604052508101906200033b9190620007c5565b8373ffffffffffffffffffffffffffffffffffffffff16319450945094509450509193509193565b600081815481106200037457600080fd5b906000526020600020016000915054906101000a900473ffffffffffffffffffffffffffffffffffffffff1681565b610980806200098683390190565b6000604051905090565b600080fd5b600080fd5b600073ffffffffffffffffffffffffffffffffffffffff82169050919050565b6000620003f282620003c5565b9050919050565b6200040481620003e5565b81146200041057600080fd5b50565b6000813590506200042481620003f9565b92915050565b600080fd5b600080fd5b600080fd5b60008083601f8401126200045257620004516200042a565b5b8235905067ffffffffffffffff8111156200047257620004716200042f565b5b60208301915083600182028301111562000491576200049062000434565b5b9250929050565b600080600060408486031215620004b457620004b3620003bb565b5b6000620004c48682870162000413565b935050602084013567ffffffffffffffff811115620004e857620004e7620003c0565b5b620004f68682870162000439565b92509250509250925092565b6000819050919050565b620005178162000502565b81146200052357600080fd5b50565b60008135905062000537816200050c565b92915050565b600060208284031215620005565762000555620003bb565b5b6000620005668482850162000526565b91505092915050565b6200057a81620003e5565b82525050565b600081519050919050565b600082825260208201905092915050565b60005b83811015620005bc5780820151818401526020810190506200059f565b60008484015250505050565b6000601f19601f8301169050919050565b6000620005e68262000580565b620005f281856200058b565b9350620006048185602086016200059c565b6200060f81620005c8565b840191505092915050565b620006258162000502565b82525050565b60006080820190506200064260008301876200056f565b8181036020830152620006568186620005d9565b90506200066760408301856200056f565b6200067660608301846200061a565b95945050505050565b6000819050919050565b6000620006aa620006a46200069e84620003c5565b6200067f565b620003c5565b9050919050565b6000620006be8262000689565b9050919050565b6000620006d282620006b1565b9050919050565b620006e481620006c5565b82525050565b6000602082019050620007016000830184620006d9565b92915050565b82818337600083830152505050565b60006200072483856200058b565b93506200073383858462000707565b6200073e83620005c8565b840190509392505050565b60006040820190506200076060008301866200056f565b81810360208301526200077581848662000716565b9050949350505050565b7f4e487b7100000000000000000000000000000000000000000000000000000000600052603260045260246000fd5b600081519050620007bf81620003f9565b92915050565b600060208284031215620007de57620007dd620003bb565b5b6000620007ee84828501620007ae565b91505092915050565b600080fd5b7f4e487b7100000000000000000000000000000000000000000000000000000000600052604160045260246000fd5b6200083682620005c8565b810181811067ffffffffffffffff82111715620008585762000857620007fc565b5b80604052505050565b60006200086d620003b1565b90506200087b82826200082b565b919050565b600067ffffffffffffffff8211156200089e576200089d620007fc565b5b620008a982620005c8565b9050602081019050919050565b6000620008cd620008c78462000880565b62000861565b905082815260208101848484011115620008ec57620008eb620007f7565b5b620008f98482856200059c565b509392505050565b600082601f8301126200091957620009186200042a565b5b81516200092b848260208601620008b6565b91505092915050565b6000602082840312156200094d576200094c620003bb565b5b600082015167ffffffffffffffff8111156200096e576200096d620003c0565b5b6200097c8482850162000901565b9150509291505056fe608060405260405162000980380380620009808339818101604052810190620000299190620002bc565b816000806101000a81548173ffffffffffffffffffffffffffffffffffffffff021916908373ffffffffffffffffffffffffffffffffffffffff16021790555030600160006101000a81548173ffffffffffffffffffffffffffffffffffffffff021916908373ffffffffffffffffffffffffffffffffffffffff1602179055508060029081620000bb91906200056d565b50505062000654565b6000604051905090565b600080fd5b600080fd5b600073ffffffffffffffffffffffffffffffffffffffff82169050919050565b60006200010582620000d8565b9050919050565b6200011781620000f8565b81146200012357600080fd5b50565b60008151905062000137816200010c565b92915050565b600080fd5b600080fd5b6000601f19601f8301169050919050565b7f4e487b7100000000000000000000000000000000000000000000000000000000600052604160045260246000fd5b620001928262000147565b810181811067ffffffffffffffff82111715620001b457620001b362000158565b5b80604052505050565b6000620001c9620000c4565b9050620001d7828262000187565b919050565b600067ffffffffffffffff821115620001fa57620001f962000158565b5b620002058262000147565b9050602081019050919050565b60005b838110156200023257808201518184015260208101905062000215565b60008484015250505050565b6000620002556200024f84620001dc565b620001bd565b90508281526020810184848401111562000274576200027362000142565b5b6200028184828562000212565b509392505050565b600082601f830112620002a157620002a06200013d565b5b8151620002b38482602086016200023e565b91505092915050565b60008060408385031215620002d657620002d5620000ce565b5b6000620002e68582860162000126565b925050602083015167ffffffffffffffff8111156200030a5762000309620000d3565b5b620003188582860162000289565b9150509250929050565b600081519050919050565b7f4e487b7100000000000000000000000000000000000000000000000000000000600052602260045260246000fd5b600060028204905060018216806200037557607f821691505b6020821081036200038b576200038a6200032d565b5b50919050565b60008190508160005260206000209050919050565b60006020601f8301049050919050565b600082821b905092915050565b600060088302620003f57fffffffffffffffffffffffffffffffffffffffffffffffffffffffffffffffff82620003b6565b620004018683620003b6565b95508019841693508086168417925050509392505050565b6000819050919050565b6000819050919050565b60006200044e62000448620004428462000419565b62000423565b62000419565b9050919050565b6000819050919050565b6200046a836200042d565b62000482620004798262000455565b848454620003c3565b825550505050565b600090565b620004996200048a565b620004a68184846200045f565b505050565b5b81811015620004ce57620004c26000826200048f565b600181019050620004ac565b5050565b601f8211156200051d57620004e78162000391565b620004f284620003a6565b8101602085101562000502578190505b6200051a6200051185620003a6565b830182620004ab565b50505b505050565b600082821c905092915050565b6000620005426000198460080262000522565b1980831691505092915050565b60006200055d83836200052f565b9150826002028217905092915050565b620005788262000322565b67ffffffffffffffff81111562000594576200059362000158565b5b620005a082546200035c565b620005ad828285620004d2565b600060209050601f831160018114620005e55760008415620005d0578287015190505b620005dc85826200054f565b8655506200064c565b601f198416620005f58662000391565b60005b828110156200061f57848901518255600182019150602085019450602081019050620005f8565b868310156200063f57848901516200063b601f8916826200052f565b8355505b6001600288020188555050505b505050505050565b61031c80620006646000396000f3fe608060405234801561001057600080fd5b50600436106100415760003560e01c80630ad9d05214610046578063514fa676146100645780638da5cb5b14610082575b600080fd5b61004e6100a0565b60405161005b9190610208565b60405180910390f35b61006c61012e565b604051610079919061026b565b60405180910390f35b61008a610154565b604051610097919061026b565b60405180910390f35b600280546100ad906102b5565b80601f01602080910402602001604051908101604052809291908181526020018280546100d9906102b5565b80156101265780601f106100fb57610100808354040283529160200191610126565b820191906000526020600020905b81548152906001019060200180831161010957829003601f168201915b505050505081565b600160009054906101000a900473ffffffffffffffffffffffffffffffffffffffff1681565b60008054906101000a900473ffffffffffffffffffffffffffffffffffffffff1681565b600081519050919050565b600082825260208201905092915050565b60005b838110156101b2578082015181840152602081019050610197565b60008484015250505050565b6000601f19601f8301169050919050565b60006101da82610178565b6101e48185610183565b93506101f4818560208601610194565b6101fd816101be565b840191505092915050565b6000602082019050818103600083015261022281846101cf565b905092915050565b600073ffffffffffffffffffffffffffffffffffffffff82169050919050565b60006102558261022a565b9050919050565b6102658161024a565b82525050565b6000602082019050610280600083018461025c565b92915050565b7f4e487b7100000000000000000000000000000000000000000000000000000000600052602260045260246000fd5b600060028204905060018216806102cd57607f821691505b6020821081036102e0576102df610286565b5b5091905056fea264697066735822122000f3e4e69ca7c469f734a1213ccb3c5d0630a302dd610d730557af43e096d43d64736f6c63430008110033a26469706673582212208d084605d463075462f5698333279f5de9810311745fbd46edccd5fae4f4b1ac64736f6c63430008110033",
  "linkReferences": {},
  "deployedLinkReferences": {}
}